{
  "abi": [
    {
      "inputs": [],
      "name": "PriceOutOfBounds",
      "type": "error"
    },
    {
      "inputs": [],
      "name": "TickOutOfBounds",
      "type": "error"
    },
    {
      "inputs": [
        {
          "internalType": "uint24",
          "name": "_tickSpacing",
          "type": "uint24"
        }
      ],
      "name": "getMaxLiquidity",
      "outputs": [
        {
          "internalType": "uint128",
          "name": "",
          "type": "uint128"
        }
      ],
      "stateMutability": "pure",
      "type": "function"
    }
  ],
  "bytecode": {
    "object": "0x6080806040523461001c576114bd90816100228239308160070152f35b600080fdfe6080604052307f000000000000000000000000000000000000000000000000000000000000000014600436101561003557600080fd5b6000803560e01c91826328c11771146100805782637a1d53431461006d57505063dc47a5c214610065575b600080fd5b6100606104a9565b90915061007d57506100606101e7565b80fd5b61007d5761016060031936011261007d576100fe6100e961009f610102565b6100a7610149565b6100af610159565b6100b7610169565b6100bf610179565b906100c86101ba565b926100d1610189565b946100da610125565b9660443560243560043561083d565b60405160029190910b81529081906020820190565b0390f35b6064359073ffffffffffffffffffffffffffffffffffffffff8216820361006057565b610144359073ffffffffffffffffffffffffffffffffffffffff8216820361006057565b608435908160020b820361006057565b60a435908160020b820361006057565b60c435908160020b820361006057565b60e435908160020b820361006057565b61012435908160020b820361006057565b602435908160020b820361006057565b604435908160020b820361006057565b61010435906001600160801b038216820361006057565b606435906001600160801b038216820361006057565b5060a0600319360112610060576100fe60043561020261019a565b9061020b6101aa565b906102146101d1565b9261021d610149565b9361023582849060020b600052602052604060002090565b9160029281840b620d89e71981141580610487575b15610463576102c582546102ac61027082890b8a9060020b600052602052604060002090565b9160181c880b61028d818b9060020b600052602052604060002090565b929065ffffff0000001982549160181b65ffffff000000169116179055565b835460020b5b62ffffff198254169062ffffff16179055565b87850b14610447575b506102e961030191859060020b600052602052604060002090565b60036000918281558260018201558260028201550155565b8461031985859060020b600052602052604060002090565b9285810b92620d89e884141580610425575b156103a95750610379845461036f61035282850b899060020b600052602052604060002090565b9160181c840b61028d818a9060020b600052602052604060002090565b855460020b6102b2565b0b1461039b575b506100e9916102e9919060020b600052602052604060002090565b5460020b92506100e9610380565b9250505061042093508192506103cd6103da92546001600160801b039060301c1690565b036001600160801b031690565b7fffffffffffffffffffff00000000000000000000000000000000ffffffffffff75ffffffffffffffffffffffffffffffff00000000000083549260301b169116179055565b6100e9565b50845460301c6001600160801b03166001600160801b0380831691161461032b565b61030191965061045b6102e9915460020b90565b9691506102ce565b5061048291506103da836103cd83546001600160801b039060301c1690565b610301565b50815460301c6001600160801b03166001600160801b0380861691161461024a565b5060206003193601126100605760043562ffffff80821680830361006057602092627fffff62fffffe9211600116610522575b60011b168015610515575b620d89e804168015610508575b604051906001600160801b03908104168152f35b610510610546565b6104f4565b61051d610546565b6104e7565b61052a61052f565b6104dc565b50634e487b7160e01b600052601160045260246000fd5b50634e487b7160e01b600052601260045260246000fd5b1561056457565b606460405162461bcd60e51b815260206004820152600b60248201527f57524f4e475f4f524445520000000000000000000000000000000000000000006044820152fd5b156105af57565b606460405162461bcd60e51b815260206004820152600b60248201527f4c4f5745525f52414e47450000000000000000000000000000000000000000006044820152fd5b156105fa57565b606460405162461bcd60e51b815260206004820152600b60248201527f55505045525f52414e47450000000000000000000000000000000000000000006044820152fd5b1561064557565b606460405162461bcd60e51b815260206004820152600b60248201527f4c4f5745525f4f524445520000000000000000000000000000000000000000006044820152fd5b6040519060c0820182811067ffffffffffffffff8211176106a957604052565b634e487b7160e01b600052604160045260246000fd5b9065ffffff0000001982549160181b65ffffff000000169116179055565b60a0600373ffffffffffffffffffffffffffffffffffffffff92610714855160020b829062ffffff198254169062ffffff16179055565b61073e602086015160020b829065ffffff0000001982549160181b65ffffff000000169116179055565b604085015181547fffffffffffffffffffff00000000000000000000000000000000ffffffffffff1660309190911b75ffffffffffffffffffffffffffffffff00000000000016178155606085015160018201556080850151600282015501920151167fffffffffffffffffffffffff0000000000000000000000000000000000000000825416179055565b906001600160801b0380809316911680920381116107e6570190565b6107ee61052f565b0190565b156107f957565b606460405162461bcd60e51b815260206004820152600b60248201527f55505045525f4f524445520000000000000000000000000000000000000000006044820152fd5b94979290879a968a92858a978c86866108b061099e9f848f61088e620d89e86108a0946108718160020b8660020b1261055d565b6108848560020b620d89e71913156105a8565b60020b13156105f3565b9060020b600052602052604060002090565b5460301c6001600160801b031690565b938d8b6001600160801b03871615801590610d06575b15610b865750505050505061093c916108de916107ca565b6108f58d8b9060020b600052602052604060002090565b907fffffffffffffffffffff00000000000000000000000000000000ffffffffffff75ffffffffffffffffffffffffffffffff00000000000083549260301b169116179055565b6109566108a0888a9060020b600052602052604060002090565b946001600160801b03861615801590610b77575b156109fa575050505050916109866108f59261099995946107ca565b929060020b600052602052604060002090565b610d16565b8260020b8460020b8112806109ea575b156109ba575050505090565b90918093945060020b1390816109d9575b506109d4575090565b905090565b905060020b8160020b1315386109cb565b508160020b8560020b13156109ae565b88949550958261088e9492610ae298610a248b966109999d9060020b600052602052604060002090565b948554996001600160801b038b60181c60020b9b60301c16151580610b6b575b80610b5b575b610a53906107f2565b60020b8760020b1315600014610af65790610ac69291610a9f6106bf96610a85610a7b610689565b97889060020b9052565b60028d900b60208801526001600160801b03166040870152565b6060850152608084015273ffffffffffffffffffffffffffffffffffffffff1660a0830152565b610add84879060020b600052602052604060002090565b6106dd565b9062ffffff198254169062ffffff16179055565b505050610b2f6106bf92610b15610b0b610689565b93849060020b9052565b600289900b60208401526001600160801b03166040830152565b6000606082015260006080820152600060a0820152610add84879060020b600052602052604060002090565b50600288810b9086900b12610a4a565b508760020b8b13610a44565b50620d89e88860020b1461096a565b85965096828683610c719a610bb0610ae29a97610c5e99979060020b600052602052604060002090565b958654996001600160801b038b60181c60020b9b60301c1615801590610cf6575b80610ce7575b80610cda575b610be69061063e565b60020b8460020b1315600014610c765790610add939291610c336106bf97610c19610c0f610689565b98899060020b9052565b60028d900b60208901526001600160801b03166040880152565b6060860152608085015273ffffffffffffffffffffffffffffffffffffffff8d1660a085015261088e565b8b9060020b600052602052604060002090565b61093c565b505090610add91610cb36106bf95610c99610c8f610689565b96879060020b9052565b60028b900b60208701526001600160801b03166040860152565b6000606085015260006080850152600060a08501529060020b600052602052604060002090565b50600285900b8b13610bdd565b508460020b8660020b12610bd7565b50620d89e7198660020b14610bd1565b50620d89e7198660020b146108c6565b73ffffffffffffffffffffffffffffffffffffffff8116906401000276a38210801561103d575b6110135777ffffffffffffffffffffffffffffffffffffffff000000009060201b16806001600160801b03811160071b9181831c9267ffffffffffffffff841160061b93841c9363ffffffff851160051b94851c9461ffff861160041b95861c60ff9687821160031b91821c92600f841160021b93841c94600160038711811b96871c11961717171717171791608083101560001461100757507fffffffffffffffffffffffffffffffffffffffffffffffffffffffffffffff8182011c5b8002607f928392828493841c81841c1c800280851c81851c1c800280861c81861c1c800280871c81871c1c80029081881c82881c1c80029283891c84891c1c800294858a1c868a1c1c800296878b1c888b1c1c800298898c1c8a8c1c1c80029a8b8d1c8c821c1c8002809d1c8d821c1c8002809e81901c90821c1c80029e8f80911c911c1c800260cd1c6604000000000000169d60cc1c6608000000000000169c60cb1c6610000000000000169b60ca1c6620000000000000169a60c91c6640000000000000169960c81c6680000000000000169860c71c670100000000000000169760c61c670200000000000000169660c51c670400000000000000169560c41c670800000000000000169460c31c671000000000000000169360c21c672000000000000000169260c11c674000000000000000169160c01c67800000000000000016907fffffffffffffffffffffffffffffffffffffffffffffffffffffffffffffff800160401b1717171717171717171717171717693627a301d71055774c85027ffffffffffffffffffffffffffffffffffd709b7e5480fba5a50fed5e62ffc556810160801d60020b906fdb2df09e81959a81455e260799a0632f0160801d60020b91600090838314600014610fd7575050905090565b610ffc610fe3856110cf565b73ffffffffffffffffffffffffffffffffffffffff1690565b1190506109d4575090565b905081607f031b610dfc565b60046040517f6e4ba61d000000000000000000000000000000000000000000000000000000008152fd5b5073fffd8963efd1fc6a506488495d951d5263988d26821015610d3d565b7f80000000000000000000000000000000000000000000000000000000000000008114611089575b60000390565b61109161052f565b611083565b80156110c2575b7fffffffffffffffffffffffffffffffffffffffffffffffffffffffffffffffff0490565b6110ca610546565b61109d565b60020b6000811215611481576110e48161105b565b620d89e881116114575773ffffffffffffffffffffffffffffffffffffffff91600182161561142e5770ffffffffffffffffffffffffffffffffff6ffffcb933bd6fad37aa2d162d1a5940015b169160028116611412575b600481166113f6575b600881166113da575b601081166113be575b602081166113a2575b60408116611386575b60809081811661136b575b6101008116611350575b6102008116611335575b610400811661131a575b61080081166112ff575b61100081166112e4575b61200081166112c9575b61400081166112ae575b6180008116611293575b620100008116611278575b62020000811661125e575b620400008116611244575b6208000016611229575b5060001261121b575b63ffffffff81166112125760ff60005b169060201c011690565b60ff6001611208565b61122490611096565b6111f8565b6b048a170391f7dc42444e8fa26000929302901c91906111ef565b6d2216e584f5fa1ea926041bedfe98909302811c926111e5565b926e5d6af8dedb81196699c329225ee60402811c926111da565b926f09aa508b5b7a84e1c677de54f3e99bc902811c926111cf565b926f31be135f97d08fd981231505542fcfa602811c926111c4565b926f70d869a156d2a1b890bb3df62baf32f702811c926111ba565b926fa9f746462d870fdf8a65dc1f90e061e502811c926111b0565b926fd097f3bdfd2022b8845ad8f792aa582502811c926111a6565b926fe7159475a2c29b7443b29c7fa6e889d902811c9261119c565b926ff3392b0822b70005940c7a398e4b70f302811c92611192565b926ff987a7253ac413176f2b074cf7815e5402811c92611188565b926ffcbe86c7900a88aedcffc83b479aa3a402811c9261117e565b926ffe5dee046a99a2a811c461f1969c305302811c92611174565b916fff2ea16466c96a3843ec78b326b528610260801c91611169565b916fff973b41fa98c081472e6896dfb254c00260801c91611160565b916fffcb9843d60f6159c9db58835c9266440260801c91611157565b916fffe5caca7e10e4e61c3624eaa0941cd00260801c9161114e565b916ffff2e50f5f656932ef12357cf3c7fdcc0260801c91611145565b916ffff97272373d413259a46990580e213a0260801c9161113c565b70ffffffffffffffffffffffffffffffffff700100000000000000000000000000000000611131565b60046040517ff87dc40c000000000000000000000000000000000000000000000000000000008152fd5b806110e456fea26469706673582212207d9cf18ac6a4848b3e86e1689a6b8a2ae723e6fd749dae32e052273efd44344164736f6c634300080e0033",
    "linkReferences": {}
  },
  "methodIdentifiers": {
    "getMaxLiquidity(uint24)": "dc47a5c2",
    "insert(mapping(int24 => IConcentratedLiquidityPoolStruct.Tick) storage,uint256,uint256,uint160,int24,int24,int24,int24,uint128,int24,uint160)": "28c11771",
    "remove(mapping(int24 => IConcentratedLiquidityPoolStruct.Tick) storage,int24,int24,uint128,int24)": "7a1d5343"
  },
  "id": 33
}