{
  "abi": [
    {
      "inputs": [
        {
          "internalType": "contract IConcentratedLiquidityPoolManager",
          "name": "_poolManager",
          "type": "address"
        }
      ],
      "stateMutability": "nonpayable",
      "type": "constructor"
    },
    {
      "anonymous": false,
      "inputs": [
        {
          "indexed": true,
          "internalType": "contract IConcentratedLiquidityPool",
          "name": "pool",
          "type": "address"
        },
        {
          "indexed": true,
          "internalType": "uint256",
          "name": "incentiveId",
          "type": "uint256"
        },
        {
          "indexed": true,
          "internalType": "address",
          "name": "rewardToken",
          "type": "address"
        }
      ],
      "name": "AddIncentive",
      "type": "event"
    },
    {
      "anonymous": false,
      "inputs": [
        {
          "indexed": true,
          "internalType": "uint256",
          "name": "positionId",
          "type": "uint256"
        },
        {
          "indexed": true,
          "internalType": "uint256",
          "name": "incentiveId",
          "type": "uint256"
        },
        {
          "indexed": true,
          "internalType": "address",
          "name": "recipient",
          "type": "address"
        },
        {
          "indexed": false,
          "internalType": "uint96",
          "name": "amount",
          "type": "uint96"
        }
      ],
      "name": "ClaimReward",
      "type": "event"
    },
    {
      "anonymous": false,
      "inputs": [
        {
          "indexed": true,
          "internalType": "contract IConcentratedLiquidityPool",
          "name": "pool",
          "type": "address"
        },
        {
          "indexed": true,
          "internalType": "uint256",
          "name": "incentiveId",
          "type": "uint256"
        },
        {
          "indexed": false,
          "internalType": "uint256",
          "name": "amount",
          "type": "uint256"
        }
      ],
      "name": "ReclaimIncentive",
      "type": "event"
    },
    {
      "anonymous": false,
      "inputs": [
        {
          "indexed": true,
          "internalType": "uint256",
          "name": "positionId",
          "type": "uint256"
        },
        {
          "indexed": true,
          "internalType": "uint256",
          "name": "incentiveId",
          "type": "uint256"
        }
      ],
      "name": "Subscribe",
      "type": "event"
    },
    {
      "inputs": [
        {
          "internalType": "contract IConcentratedLiquidityPool",
          "name": "pool",
          "type": "address"
        },
        {
          "components": [
            {
              "internalType": "address",
              "name": "owner",
              "type": "address"
            },
            {
              "internalType": "address",
              "name": "token",
              "type": "address"
            },
            {
              "internalType": "uint32",
              "name": "startTime",
              "type": "uint32"
            },
            {
              "internalType": "uint32",
              "name": "endTime",
              "type": "uint32"
            },
            {
              "internalType": "uint32",
              "name": "expiry",
              "type": "uint32"
            },
            {
              "internalType": "uint160",
              "name": "secondsClaimed",
              "type": "uint160"
            },
            {
              "internalType": "uint96",
              "name": "rewardsUnclaimed",
              "type": "uint96"
            }
          ],
          "internalType": "struct ConcentratedLiquidityPoolStaker.Incentive",
          "name": "incentive",
          "type": "tuple"
        }
      ],
      "name": "addIncentive",
      "outputs": [],
      "stateMutability": "nonpayable",
      "type": "function"
    },
    {
      "inputs": [],
      "name": "bento",
      "outputs": [
        {
          "internalType": "contract IBentoBoxMinimal",
          "name": "",
          "type": "address"
        }
      ],
      "stateMutability": "view",
      "type": "function"
    },
    {
      "inputs": [
        {
          "internalType": "uint256",
          "name": "positionId",
          "type": "uint256"
        },
        {
          "internalType": "uint256[]",
          "name": "incentiveIds",
          "type": "uint256[]"
        },
        {
          "internalType": "address",
          "name": "recipient",
          "type": "address"
        },
        {
          "internalType": "bool",
          "name": "unwrapBento",
          "type": "bool"
        }
      ],
      "name": "claimRewards",
      "outputs": [],
      "stateMutability": "nonpayable",
      "type": "function"
    },
    {
      "inputs": [
        {
          "internalType": "uint256",
          "name": "positionId",
          "type": "uint256"
        },
        {
          "internalType": "uint256",
          "name": "incentiveId",
          "type": "uint256"
        }
      ],
      "name": "getReward",
      "outputs": [
        {
          "internalType": "uint256",
          "name": "rewards",
          "type": "uint256"
        },
        {
          "internalType": "uint256",
          "name": "secondsInside",
          "type": "uint256"
        }
      ],
      "stateMutability": "view",
      "type": "function"
    },
    {
      "inputs": [
        {
          "internalType": "contract IConcentratedLiquidityPool",
          "name": "",
          "type": "address"
        }
      ],
      "name": "incentiveCount",
      "outputs": [
        {
          "internalType": "uint256",
          "name": "",
          "type": "uint256"
        }
      ],
      "stateMutability": "view",
      "type": "function"
    },
    {
      "inputs": [
        {
          "internalType": "contract IConcentratedLiquidityPool",
          "name": "",
          "type": "address"
        },
        {
          "internalType": "uint256",
          "name": "",
          "type": "uint256"
        }
      ],
      "name": "incentives",
      "outputs": [
        {
          "internalType": "address",
          "name": "owner",
          "type": "address"
        },
        {
          "internalType": "address",
          "name": "token",
          "type": "address"
        },
        {
          "internalType": "uint32",
          "name": "startTime",
          "type": "uint32"
        },
        {
          "internalType": "uint32",
          "name": "endTime",
          "type": "uint32"
        },
        {
          "internalType": "uint32",
          "name": "expiry",
          "type": "uint32"
        },
        {
          "internalType": "uint160",
          "name": "secondsClaimed",
          "type": "uint160"
        },
        {
          "internalType": "uint96",
          "name": "rewardsUnclaimed",
          "type": "uint96"
        }
      ],
      "stateMutability": "view",
      "type": "function"
    },
    {
      "inputs": [],
      "name": "poolManager",
      "outputs": [
        {
          "internalType": "contract IConcentratedLiquidityPoolManager",
          "name": "",
          "type": "address"
        }
      ],
      "stateMutability": "view",
      "type": "function"
    },
    {
      "inputs": [
        {
          "internalType": "contract IConcentratedLiquidityPool",
          "name": "pool",
          "type": "address"
        },
        {
          "internalType": "int24",
          "name": "lowerTick",
          "type": "int24"
        },
        {
          "internalType": "int24",
          "name": "upperTick",
          "type": "int24"
        }
      ],
      "name": "rangeSecondsInside",
      "outputs": [
        {
          "internalType": "uint256",
          "name": "secondsInside",
          "type": "uint256"
        }
      ],
      "stateMutability": "view",
      "type": "function"
    },
    {
      "inputs": [
        {
          "internalType": "contract IConcentratedLiquidityPool",
          "name": "pool",
          "type": "address"
        },
        {
          "internalType": "uint256",
          "name": "incentiveId",
          "type": "uint256"
        },
        {
          "internalType": "address",
          "name": "receiver",
          "type": "address"
        },
        {
          "internalType": "uint96",
          "name": "amount",
          "type": "uint96"
        },
        {
          "internalType": "bool",
          "name": "unwrapBento",
          "type": "bool"
        }
      ],
      "name": "reclaimIncentive",
      "outputs": [],
      "stateMutability": "nonpayable",
      "type": "function"
    },
    {
      "inputs": [
        {
          "internalType": "uint256",
          "name": "",
          "type": "uint256"
        },
        {
          "internalType": "uint256",
          "name": "",
          "type": "uint256"
        }
      ],
      "name": "stakes",
      "outputs": [
        {
          "internalType": "uint160",
          "name": "secondsGrowthInsideLast",
          "type": "uint160"
        },
        {
          "internalType": "uint32",
          "name": "timestamp",
          "type": "uint32"
        }
      ],
      "stateMutability": "view",
      "type": "function"
    },
    {
      "inputs": [
        {
          "internalType": "uint256",
          "name": "positionId",
          "type": "uint256"
        },
        {
          "internalType": "uint256[]",
          "name": "incentiveId",
          "type": "uint256[]"
        }
      ],
      "name": "subscribe",
      "outputs": [],
      "stateMutability": "nonpayable",
      "type": "function"
    }
  ],
  "bytecode": {
    "object": "0x60a080604052346200011e576020816200228c803803809162000023828562000194565b8339810103126200011e57516200003a81620001b8565b600080546001600160a01b0319166001600160a01b038316179055604051634da3182760e01b8152906001600160a01b03906020908390600490829085165afa9182156200015a575b60009262000123575b508116803b156200011e576000809160046040518094819363577268d960e11b83525af180156200010e575b620000f0575b5060805260405161208d9081620001ff82396080518181816101d401528181611e1301528181611f300152611fa40152f35b806200010062000107926200016a565b80620001f2565b38620000be565b62000118620001e5565b620000b8565b600080fd5b6200014a91925060203d811162000152575b62000141818362000194565b810190620001ca565b90386200008c565b503d62000135565b62000164620001e5565b62000083565b6001600160401b0381116200017e57604052565b634e487b7160e01b600052604160045260246000fd5b601f909101601f19168101906001600160401b038211908210176200017e57604052565b6001600160a01b038116036200011e57565b908160209103126200011e5751620001e281620001b8565b90565b506040513d6000823e3d90fd5b60009103126200011e5756fe60806040526004361015610013575b600080fd5b60003560e01c806332e2e213146100ef5780634da31827146100e657806355a93140146100dd57806371fa6b4d146100d4578063897217bc146100cb5780638dde6dba146100c2578063b221e5fd146100b9578063b90bc519146100b0578063cc6fa8c9146100a7578063dc4c90d31461009e5763df6742181461009657600080fd5b61000e6109be565b5061000e61098b565b5061000e6108de565b5061000e610665565b5061000e610614565b5061000e610556565b5061000e610403565b5061000e6103c4565b5061000e61025b565b5061000e6101b3565b5061000e610109565b6001600160a01b0381160361000e57565b503461000e57604060031936011261000e57600435610127816100f8565b6001600160a01b0390811660009081526002602081815260408084206024358552825292839020805460018201549190930154845193861684528186169284019290925263ffffffff60a082811c82169585019590955260c082811c909116606085015260e091821c608085015294821684840152921c9281019290925290f35b600091031261000e57565b503461000e57600060031936011261000e5760206040516001600160a01b037f0000000000000000000000000000000000000000000000000000000000000000168152f35b60443590610205826100f8565b565b606435906bffffffffffffffffffffffff8216820361000e57565b60e435906bffffffffffffffffffffffff8216820361000e57565b60843590811515820361000e57565b60643590811515820361000e57565b503461000e5760a060031936011261000e57600435610279816100f8565b602435907f63156f3c47a8140de33d9354ed09cc696a65d2aae70b3600874fd35b6f082c466044356102aa816100f8565b6102b2610207565b926103a66102be61023d565b6102ee876102df856001600160a01b03166000526002602052604060002090565b90600052602052604060002090565b80546001600160a01b0395906103079087163314610ed0565b61039f6002600184019361032d61031f865460e01c90565b63ffffffff42911610610f1b565b019261039261033d855460a01c90565b946103668c6bffffffffffffffffffffffff97610361898316809a83161015610f66565b610fb1565b6001600160a01b0373ffffffffffffffffffffffffffffffffffffffff1983549260a01b169116179055565b546001600160a01b031690565b3090611ebc565b6040516bffffffffffffffffffffffff9490941684521691602090a3005b503461000e57602060031936011261000e576001600160a01b036004356103ea816100f8565b1660005260016020526020604060002054604051908152f35b503461000e57604060031936011261000e5760243567ffffffffffffffff80821161000e573660238301121561000e57816004013590811161000e573660248260051b8401011161000e57602461045d92016004356112a5565b005b50634e487b7160e01b600052604160045260246000fd5b60e0810190811067ffffffffffffffff82111761049257604052565b61049a61045f565b604052565b67ffffffffffffffff811161049257604052565b90601f7fffffffffffffffffffffffffffffffffffffffffffffffffffffffffffffffe0910116810190811067ffffffffffffffff82111761049257604052565b604051906040820182811067ffffffffffffffff82111761049257604052565b63ffffffff81160361000e57565b6064359061020582610514565b6084359061020582610514565b60a4359061020582610514565b60c43590610205826100f8565b503461000e5761010060031936011261000e57600435610575816100f8565b60e07fffffffffffffffffffffffffffffffffffffffffffffffffffffffffffffffdc36011261000e5760405161045d916105af82610476565b6024356105bb816100f8565b82526044356105c9816100f8565b60208301526105d6610522565b60408301526105e361052f565b60608301526105f061053c565b60808301526105fd610549565b60a083015261060a610222565b60c0830152610d0d565b503461000e57604060031936011261000e57600435600052600360205260406000206024356000526020526040806000205463ffffffff8251916001600160a01b038116835260a01c166020820152f35b503461000e57604060031936011261000e576004356000809161069e61069284546001600160a01b031690565b6001600160a01b031690565b60e0604051809263133f757160e31b825281806106c387600483019190602083019252565b03915afa9081156108d1575b84916108a3575b5080516001600160a01b031661072e61072961071161070c866102df866001600160a01b03166000526002602052604060002090565b611121565b946102df602435916000526003602052604060002090565b611a2c565b9063ffffffff610745602084015163ffffffff1690565b1661075b575b6040805186815260208101889052f35b6107df93955061087e945060206107ac6107d9936107a66106926107986107c49661078a60408b015160020b90565b60608b015160020b91611b51565b92516001600160a01b031690565b906115f2565b9301516fffffffffffffffffffffffffffffffff1690565b6fffffffffffffffffffffffffffffffff1690565b906115fd565b916107fd6107f4606083015163ffffffff1690565b63ffffffff1690565b838142106000146108875761087461086360c061084f610838610832610879975b6107a66107f460408c015163ffffffff1690565b60801b90565b6107a661069260a08a01516001600160a01b031690565b9501516bffffffffffffffffffffffff1690565b6bffffffffffffffffffffffff1690565b6115fd565b61161c565b3880808061074b565b610879915061087461086360c061084f6108386108324261081e565b6108c4915060e03d81116108ca575b6108bc81836104b3565b81019061101c565b386106d6565b503d6108b2565b6108d9610ff2565b6106cf565b503461000e57608060031936011261000e5767ffffffffffffffff60243581811161000e573660238201121561000e57806004013591821161097e575b8160051b9060405191602093610933858301856104b3565b83526024848401918301019136831161000e57602401905b82821061096f5761045d8461095e6101f8565b61096661024c565b91600435611658565b8135815290840190840161094b565b61098661045f565b61091b565b503461000e57600060031936011261000e5760206001600160a01b0360005416604051908152f35b8060020b0361000e57565b503461000e57606060031936011261000e5760206109ff6004356109e1816100f8565b6024356109ed816109b3565b604435916109fa836109b3565b611b51565b604051908152f35b15610a0e57565b606460405162461bcd60e51b815260206004820152600f60248201527f414c52454144595f5354415254454400000000000000000000000000000000006044820152fd5b15610a5957565b606460405162461bcd60e51b815260206004820152600e60248201527f53544152545f504153545f454e440000000000000000000000000000000000006044820152fd5b50634e487b7160e01b600052601160045260246000fd5b63ffffffff6276a700911663ff8958ff8111610ace570190565b610ad6610a9d565b0190565b15610ae157565b606460405162461bcd60e51b815260206004820152600f60248201527f454e445f504153545f42554646455200000000000000000000000000000000006044820152fd5b15610b2c57565b606460405162461bcd60e51b815260206004820152600a60248201527f4e4f5f52455741524453000000000000000000000000000000000000000000006044820152fd5b6001906000198114610ace570190565b9061036660c06002610205946001600160a01b03610bc48187511683906001600160a01b031673ffffffffffffffffffffffffffffffffffffffff19825416179055565b610bfb600183019160208801511682906001600160a01b031673ffffffffffffffffffffffffffffffffffffffff19825416179055565b604086015181547fffffffffffffffff00000000ffffffffffffffffffffffffffffffffffffffff1660a09190911b77ffffffff0000000000000000000000000000000000000000161781556060860151815477ffffffffffffffffffffffffffffffffffffffffffffffff7bffffffff0000000000000000000000000000000000000000000000007fffffffff0000000000000000000000000000000000000000000000000000000060808b015160e01b1693881b169116171790550192610cfa610cd160a08301516001600160a01b031690565b85906001600160a01b031673ffffffffffffffffffffffffffffffffffffffff19825416179055565b01516bffffffffffffffffffffffff1690565b90610d9160408201610d74610d6f610d4d610d2f6107f4855163ffffffff1690565b93610d4363ffffffff958642161115610a07565b5163ffffffff1690565b610d43606087019185610d676107f4855163ffffffff1690565b911610610a52565b610ab4565b90610d896107f4608086015163ffffffff1690565b911610610ada565b610e6a602060c0830192610dc96bffffffffffffffffffffffff610dc186516bffffffffffffffffffffffff1690565b161515610b25565b600060a0820152610e3481610e2f610df4886001600160a01b03166000526002602052604060002090565b610e11896001600160a01b03166000526001602052604060002090565b90815491610e1e83610b70565b905590600052602052604060002090565b610b80565b0191610e60610863610e4d85516001600160a01b031690565b92516bffffffffffffffffffffffff1690565b9030903390611e07565b610ea4610e8a836001600160a01b03166000526001602052604060002090565b54916001600160a01b03918291516001600160a01b031690565b1692167f700cf11d666684f2ebcf80048c6e6cb9e51e2a759375dc0f9d3290c6b957a72d6000604051a4565b15610ed757565b606460405162461bcd60e51b815260206004820152600960248201527f4e4f545f4f574e455200000000000000000000000000000000000000000000006044820152fd5b15610f2257565b606460405162461bcd60e51b815260206004820152600760248201527f45585049524544000000000000000000000000000000000000000000000000006044820152fd5b15610f6d57565b606460405162461bcd60e51b815260206004820152600f60248201527f414c52454144595f434c41494d454400000000000000000000000000000000006044820152fd5b6bffffffffffffffffffffffff9182169116818110610fce570390565b610fd6610a9d565b0390565b9081602091031261000e5751610fef816100f8565b90565b506040513d6000823e3d90fd5b51906fffffffffffffffffffffffffffffffff8216820361000e57565b908160e091031261000e5760c06040519161103683610476565b8051611041816100f8565b835261104f60208201610fff565b60208401526040810151611062816109b3565b60408401526060810151611075816109b3565b6060840152608081015161108881610514565b608084015260a081015160a0840152015160c082015290565b156110a857565b606460405162461bcd60e51b815260206004820152600860248201527f494e4143544956450000000000000000000000000000000000000000000000006044820152fd5b50634e487b7160e01b600052603260045260246000fd5b9190811015611114575b60051b0190565b61111c6110ec565b61110d565b9060405161112e81610476565b60c0819360026001600160a01b03918281541685526001810154838116602087015263ffffffff808260a01c16604088015281861c16606087015260e01c6080860152015490811660a084015260a01c910152565b1561118a57565b606460405162461bcd60e51b815260206004820152600a60248201527f53554253435249424544000000000000000000000000000000000000000000006044820152fd5b156111d557565b606460405162461bcd60e51b815260206004820152601260248201527f494e4143544956455f494e43454e5449564500000000000000000000000000006044820152fd5b63ffffffff60206102059361125b6001600160a01b0382511685906001600160a01b031673ffffffffffffffffffffffffffffffffffffffff19825416179055565b015182547fffffffffffffffff00000000ffffffffffffffffffffffffffffffffffffffff16911660a01b77ffffffff000000000000000000000000000000000000000016179055565b60006112bb61069282546001600160a01b031690565b9360409361132285517f6352211e000000000000000000000000000000000000000000000000000000008152602081806112fd89600483019190602083019252565b03818b5afa908115611578575b859161154a575b506001600160a01b03163314610ed0565b60e08551809763133f757160e31b8252818061134689600483019190602083019252565b03915afa95861561153d575b839661151d575b5085516001600160a01b03169561139f6fffffffffffffffffffffffffffffffff61139760208401516fffffffffffffffffffffffffffffffff1690565b1615156110a1565b6113c26106926113b28884015160020b90565b60609384015160020b908a611b51565b906113dd6113ce6104f4565b6001600160a01b039093168352565b4263ffffffff166020830152845b8481106113fd57505050505050505050565b8061149b886114766114706106926103928f61144a6114fd998e61146a8f9461070c61143f611459926001600160a01b03166000526002602052604060002090565b61144a86868a611103565b35600052602052604060002090565b996000526003602052604060002090565b93611103565b15611183565b8461148a6107f48d84015163ffffffff1690565b4210159182611502575b50506111ce565b6114c6846114c16114b68b6000526003602052604060002090565b61144a858b8b611103565b611219565b6114d1818787611103565b35887ff290eae22dead4b3e51c14d97c3ea66eb5c91286a496309828b9c28589d90215898c51a3610b70565b6113eb565b0151611514915063ffffffff166107f4565b42108438611494565b61153691965060e03d81116108ca576108bc81836104b3565b9438611359565b611545610ff2565b611352565b61156b915060203d8111611571575b61156381836104b3565b810190610fda565b38611311565b503d611559565b611580610ff2565b61130a565b602091815181101561159a575b60051b010190565b6115a26110ec565b611592565b156115ae57565b606460405162461bcd60e51b815260206004820152601060248201527f4d5553545f5245535542534352494245000000000000000000000000000000006044820152fd5b818110610fce570390565b8060001904821181151516611610570290565b611618610a9d565b0290565b8115611626570490565b634e487b7160e01b600052601260045260246000fd5b906001600160a01b038080931691168092038111610ace570190565b90939260009261167261069285546001600160a01b031690565b956040948551937f6352211e0000000000000000000000000000000000000000000000000000000085526020978886806116b48a600483019190602083019252565b03818d5afa958615611a1f575b8396611a00575b506116df6001600160a01b03968733911614610ed0565b60e08851809b63133f757160e31b825281806117038c600483019190602083019252565b03915afa998a156119f3575b839a6119d3575b509861172981516001600160a01b031690565b9061174961173a8a83015160020b90565b606083015160020b9084611b51565b9387851692815b87518110156119c4578c8c8c8c8c8c868d8d8d868e8e6117a08f611787906001600160a01b03166000526002602052604060002090565b611791898b611585565b51600052602052604060002090565b916117c26117b88d6000526003602052604060002090565b6117918a8c611585565b916117fc835498866117de6107f4608087015163ffffffff1690565b9a6117f563ffffffff9c8d8360a01c1610156115a7565b16906115f2565b906001850198895491818360c01c1690508042106000146119bc57915b60a01c16611826916115f2565b60801b936002019e8f549486861661183d916115f2565b9201516fffffffffffffffffffffffffffffffff166fffffffffffffffffffffffffffffffff1661186d916115fd565b809360a01c9061187c916115fd565b906118869161161c565b936118b391906001600160a01b031673ffffffffffffffffffffffffffffffffffffffff19825416179055565b168a546118c6906001600160a01b031690565b906118d09161163c565b8a5473ffffffffffffffffffffffffffffffffffffffff19166001600160a01b03909116178a556bffffffffffffffffffffffff8116998a81546119149060a01c90565b9061191e91610fb1565b81546001600160a01b031660a09190911b73ffffffffffffffffffffffffffffffffffffffff19161790558530935461195d906001600160a01b031690565b9361196794611ebc565b61197091611585565b5193516bffffffffffffffffffffffff95909516855216927f65c447d181b93a7ecbcfb0582911789929f2eaf3dd655041ced82e3f361e343790602090a46119b790610b70565b611750565b504291611819565b50505050505050505050505050565b6119ec919a5060e03d81116108ca576108bc81836104b3565b9838611716565b6119fb610ff2565b61170f565b611a18919650893d8b116115715761156381836104b3565b94386116c8565b611a27610ff2565b6116c1565b906040516040810181811067ffffffffffffffff821117611a69575b60405291546001600160a01b038116835260a01c63ffffffff166020830152565b611a7161045f565b611a48565b919082604091031261000e5760208251611a8f816100f8565b920151610fef816109b3565b908160c091031261000e5760a06040519160c0830183811067ffffffffffffffff821117611b1f575b6040528051611ad2816109b3565b83526020810151611ae2816109b3565b6020840152611af360408201610fff565b604084015260608101516060840152608081015160808401520151611b17816100f8565b60a082015290565b611b2761045f565b611ac4565b919082604091031261000e5760208251611b45816100f8565b920151610fef81610514565b90610fef926001600160a01b03809316916040908151937f8c347f9b0000000000000000000000000000000000000000000000000000000085528285600481845afa948515611de4575b600095611db1575b50611cbe94958351937ff30dba93000000000000000000000000000000000000000000000000000000009283865260c093848780611bee8b60048301919091602081019260020b9052565b0381855afa968715611da4575b600097611d85575b508251908152600286900b60048201528481602481855afa948515611d78575b600095611d44575b5050816004918151928380927f6d59d8020000000000000000000000000000000000000000000000000000000082525afa918215611d37575b600092611d09575b5050169560020b809260020b1315600014611ce35760a00151611c97906001600160a01b0316610692565b925b60020b1315611cc35760a00151611cb8906001600160a01b0316610692565b926115f2565b6115f2565b611cdd61069260a0611cb89301516001600160a01b031690565b846115f2565b611cfd61069260a0611d039301516001600160a01b031690565b866115f2565b92611c99565b611d289250803d10611d30575b611d2081836104b3565b810190611b2c565b503880611c6c565b503d611d16565b611d3f610ff2565b611c64565b6004929550839181611d6a92903d10611d71575b611d6281836104b3565b810190611a9b565b9491611c2b565b503d611d58565b611d80610ff2565b611c23565b611d9d919750853d8711611d7157611d6281836104b3565b9538611c03565b611dac610ff2565b611bfb565b611cbe9550611dd590843d8611611ddd575b611dcd81836104b3565b810190611a76565b905094611ba3565b503d611dc3565b611dec610ff2565b611b9b565b919082604091031261000e576020825192015190565b91906001600160a01b037f00000000000000000000000000000000000000000000000000000000000000001690813b1561000e576040517ff18d03cc0000000000000000000000000000000000000000000000000000000081526001600160a01b039485166004820152908416602482015291909216604482015260648101929092526000908290608490829084905af18015611eaf575b611ea65750565b6102059061049f565b611eb7610ff2565b611e9f565b90919293600014611f9857604080517f97da6d300000000000000000000000000000000000000000000000000000000081526001600160a01b039283166004820152928216602484015292166044820152600060648201526084810192909252818060a48101038160006001600160a01b037f0000000000000000000000000000000000000000000000000000000000000000165af18015611f8b575b611f605750565b611f809060403d8111611f84575b611f7881836104b3565b810190611df1565b5050565b503d611f6e565b611f93610ff2565b611f59565b91906001600160a01b037f00000000000000000000000000000000000000000000000000000000000000001690813b1561000e576040517ff18d03cc0000000000000000000000000000000000000000000000000000000081526001600160a01b039485166004820152908416602482015291909216604482015260648101929092526000908290608490829084905af1801561204a575b6120375750565b806120446102059261049f565b806101a8565b612052610ff2565b61203056fea26469706673582212207223b10685775fc07828cd755978dd8d419cb3b424798cac19a64cc9818eb36464736f6c634300080e0033",
    "linkReferences": {}
  },
  "methodIdentifiers": {
    "addIncentive(address,(address,address,uint32,uint32,uint32,uint160,uint96))": "8dde6dba",
    "bento()": "4da31827",
    "claimRewards(uint256,uint256[],address,bool)": "cc6fa8c9",
    "getReward(uint256,uint256)": "b90bc519",
    "incentiveCount(address)": "71fa6b4d",
    "incentives(address,uint256)": "32e2e213",
    "poolManager()": "dc4c90d3",
    "rangeSecondsInside(address,int24,int24)": "df674218",
    "reclaimIncentive(address,uint256,address,uint96,bool)": "55a93140",
    "stakes(uint256,uint256)": "b221e5fd",
    "subscribe(uint256,uint256[])": "897217bc"
  },
  "id": 4
}