{
  "abi": [
    {
      "inputs": [
        {
          "internalType": "uint256",
          "name": "priceLower",
          "type": "uint256"
        },
        {
          "internalType": "uint256",
          "name": "priceUpper",
          "type": "uint256"
        },
        {
          "internalType": "uint256",
          "name": "currentPrice",
          "type": "uint256"
        },
        {
          "internalType": "uint256",
          "name": "dy",
          "type": "uint256"
        },
        {
          "internalType": "uint256",
          "name": "dx",
          "type": "uint256"
        }
      ],
      "name": "getLiquidityForAmounts",
      "outputs": [
        {
          "internalType": "uint256",
          "name": "liquidity",
          "type": "uint256"
        }
      ],
      "stateMutability": "pure",
      "type": "function"
    }
  ],
  "bytecode": {
    "object": "0x6080806040523461001a5761023e9081610020823930815050f35b600080fdfe608080604052600436101561001357600080fd5b60003560e01c63aec6cbfe1461002857600080fd5b60a07ffffffffffffffffffffffffffffffffffffffffffffffffffffffffffffffffc3601126100e85780610085604435606435600435602435608435600085831161008957505061007c93500390610142565b82526020820190565b0390f35b90939192918286116100b35750506100ae93506100a682826100f4565b9103916101dd565b61007c565b9190936100c99084876100a6816100d1986100f4565b940390610142565b9050808210156100e1575061007c565b905061007c565b600080fd5b156100e857565b6000198282099082810292838084109303928084039314610139576c0100000000000000000000000091838311156100e8570990828211900360a01b910360601c1790565b50505060601c90565b6c0100000000000000000000000091600019838309928260601b928380861095039480860395146101ca5790829161017b8684116100ed565b0981806000031680920460028082600302188083028203028083028203028083028203028083028203028083028203028092029003029360018380600003040190848311900302920304170290565b505091506101d98215156100ed565b0490565b909160001983830992808302928380861095039480860395146101ca5790829161017b8684116100ed56fea26469706673582212208b01068d21e36a5bec5d2d52e8c77fc147fdb9c9a7bda0f3912dec0dd35e24a464736f6c634300080e0033",
    "linkReferences": {}
  },
  "methodIdentifiers": {
    "getLiquidityForAmounts(uint256,uint256,uint256,uint256,uint256)": "aec6cbfe"
  },
  "id": 26
}