{
  "abi": [
    {
      "inputs": [
        {
          "internalType": "address",
          "name": "_masterDeployer",
          "type": "address"
        },
        {
          "internalType": "address",
          "name": "_wETH",
          "type": "address"
        }
      ],
      "stateMutability": "nonpayable",
      "type": "constructor"
    },
    {
      "anonymous": false,
      "inputs": [
        {
          "indexed": true,
          "internalType": "address",
          "name": "owner",
          "type": "address"
        },
        {
          "indexed": true,
          "internalType": "address",
          "name": "spender",
          "type": "address"
        },
        {
          "indexed": true,
          "internalType": "uint256",
          "name": "id",
          "type": "uint256"
        }
      ],
      "name": "Approval",
      "type": "event"
    },
    {
      "anonymous": false,
      "inputs": [
        {
          "indexed": true,
          "internalType": "address",
          "name": "owner",
          "type": "address"
        },
        {
          "indexed": true,
          "internalType": "address",
          "name": "operator",
          "type": "address"
        },
        {
          "indexed": false,
          "internalType": "bool",
          "name": "approved",
          "type": "bool"
        }
      ],
      "name": "ApprovalForAll",
      "type": "event"
    },
    {
      "anonymous": false,
      "inputs": [
        {
          "indexed": true,
          "internalType": "address",
          "name": "pool",
          "type": "address"
        },
        {
          "indexed": true,
          "internalType": "address",
          "name": "owner",
          "type": "address"
        },
        {
          "indexed": true,
          "internalType": "uint256",
          "name": "positionId",
          "type": "uint256"
        },
        {
          "indexed": false,
          "internalType": "uint128",
          "name": "liquidity",
          "type": "uint128"
        }
      ],
      "name": "DecreaseLiquidity",
      "type": "event"
    },
    {
      "anonymous": false,
      "inputs": [
        {
          "indexed": true,
          "internalType": "address",
          "name": "pool",
          "type": "address"
        },
        {
          "indexed": true,
          "internalType": "address",
          "name": "owner",
          "type": "address"
        },
        {
          "indexed": true,
          "internalType": "uint256",
          "name": "positionId",
          "type": "uint256"
        },
        {
          "indexed": false,
          "internalType": "uint128",
          "name": "liquidity",
          "type": "uint128"
        }
      ],
      "name": "IncreaseLiquidity",
      "type": "event"
    },
    {
      "anonymous": false,
      "inputs": [
        {
          "indexed": true,
          "internalType": "address",
          "name": "from",
          "type": "address"
        },
        {
          "indexed": true,
          "internalType": "address",
          "name": "to",
          "type": "address"
        },
        {
          "indexed": true,
          "internalType": "uint256",
          "name": "id",
          "type": "uint256"
        }
      ],
      "name": "Transfer",
      "type": "event"
    },
    {
      "inputs": [],
      "name": "DOMAIN_SEPARATOR",
      "outputs": [
        {
          "internalType": "bytes32",
          "name": "domainSeperator",
          "type": "bytes32"
        }
      ],
      "stateMutability": "view",
      "type": "function"
    },
    {
      "inputs": [],
      "name": "PERMIT_ALL_TYPEHASH",
      "outputs": [
        {
          "internalType": "bytes32",
          "name": "",
          "type": "bytes32"
        }
      ],
      "stateMutability": "view",
      "type": "function"
    },
    {
      "inputs": [],
      "name": "PERMIT_TYPEHASH",
      "outputs": [
        {
          "internalType": "bytes32",
          "name": "",
          "type": "bytes32"
        }
      ],
      "stateMutability": "view",
      "type": "function"
    },
    {
      "inputs": [
        {
          "internalType": "address",
          "name": "spender",
          "type": "address"
        },
        {
          "internalType": "uint256",
          "name": "id",
          "type": "uint256"
        }
      ],
      "name": "approve",
      "outputs": [],
      "stateMutability": "nonpayable",
      "type": "function"
    },
    {
      "inputs": [
        {
          "internalType": "address",
          "name": "owner",
          "type": "address"
        }
      ],
      "name": "balanceOf",
      "outputs": [
        {
          "internalType": "uint256",
          "name": "",
          "type": "uint256"
        }
      ],
      "stateMutability": "view",
      "type": "function"
    },
    {
      "inputs": [],
      "name": "bento",
      "outputs": [
        {
          "internalType": "contract IBentoBoxMinimal",
          "name": "",
          "type": "address"
        }
      ],
      "stateMutability": "view",
      "type": "function"
    },
    {
      "inputs": [
        {
          "internalType": "uint256",
          "name": "tokenId",
          "type": "uint256"
        },
        {
          "internalType": "uint128",
          "name": "amount",
          "type": "uint128"
        },
        {
          "internalType": "address",
          "name": "recipient",
          "type": "address"
        },
        {
          "internalType": "bool",
          "name": "unwrapBento",
          "type": "bool"
        },
        {
          "internalType": "uint256",
          "name": "minimumOut0",
          "type": "uint256"
        },
        {
          "internalType": "uint256",
          "name": "minimumOut1",
          "type": "uint256"
        }
      ],
      "name": "burn",
      "outputs": [
        {
          "internalType": "uint256",
          "name": "token0Amount",
          "type": "uint256"
        },
        {
          "internalType": "uint256",
          "name": "token1Amount",
          "type": "uint256"
        }
      ],
      "stateMutability": "nonpayable",
      "type": "function"
    },
    {
      "inputs": [
        {
          "internalType": "uint256",
          "name": "tokenId",
          "type": "uint256"
        },
        {
          "internalType": "address",
          "name": "recipient",
          "type": "address"
        },
        {
          "internalType": "bool",
          "name": "unwrapBento",
          "type": "bool"
        }
      ],
      "name": "collect",
      "outputs": [
        {
          "internalType": "uint256",
          "name": "token0amount",
          "type": "uint256"
        },
        {
          "internalType": "uint256",
          "name": "token1amount",
          "type": "uint256"
        }
      ],
      "stateMutability": "nonpayable",
      "type": "function"
    },
    {
      "inputs": [
        {
          "internalType": "uint256",
          "name": "",
          "type": "uint256"
        }
      ],
      "name": "getApproved",
      "outputs": [
        {
          "internalType": "address",
          "name": "",
          "type": "address"
        }
      ],
      "stateMutability": "view",
      "type": "function"
    },
    {
      "inputs": [
        {
          "internalType": "address",
          "name": "",
          "type": "address"
        },
        {
          "internalType": "address",
          "name": "",
          "type": "address"
        }
      ],
      "name": "isApprovedForAll",
      "outputs": [
        {
          "internalType": "bool",
          "name": "",
          "type": "bool"
        }
      ],
      "stateMutability": "view",
      "type": "function"
    },
    {
      "inputs": [],
      "name": "masterDeployer",
      "outputs": [
        {
          "internalType": "contract IMasterDeployer",
          "name": "",
          "type": "address"
        }
      ],
      "stateMutability": "view",
      "type": "function"
    },
    {
      "inputs": [
        {
          "internalType": "contract IConcentratedLiquidityPool",
          "name": "pool",
          "type": "address"
        },
        {
          "internalType": "int24",
          "name": "lowerOld",
          "type": "int24"
        },
        {
          "internalType": "int24",
          "name": "lower",
          "type": "int24"
        },
        {
          "internalType": "int24",
          "name": "upperOld",
          "type": "int24"
        },
        {
          "internalType": "int24",
          "name": "upper",
          "type": "int24"
        },
        {
          "internalType": "uint128",
          "name": "amount0Desired",
          "type": "uint128"
        },
        {
          "internalType": "uint128",
          "name": "amount1Desired",
          "type": "uint128"
        },
        {
          "internalType": "bool",
          "name": "native",
          "type": "bool"
        },
        {
          "internalType": "uint256",
          "name": "minLiquidity",
          "type": "uint256"
        },
        {
          "internalType": "uint256",
          "name": "positionId",
          "type": "uint256"
        }
      ],
      "name": "mint",
      "outputs": [
        {
          "internalType": "uint256",
          "name": "_positionId",
          "type": "uint256"
        }
      ],
      "stateMutability": "payable",
      "type": "function"
    },
    {
      "inputs": [
        {
          "internalType": "address",
          "name": "token0",
          "type": "address"
        },
        {
          "internalType": "address",
          "name": "token1",
          "type": "address"
        },
        {
          "internalType": "uint256",
          "name": "amount0",
          "type": "uint256"
        },
        {
          "internalType": "uint256",
          "name": "amount1",
          "type": "uint256"
        },
        {
          "internalType": "bool",
          "name": "native",
          "type": "bool"
        }
      ],
      "name": "mintCallback",
      "outputs": [],
      "stateMutability": "nonpayable",
      "type": "function"
    },
    {
      "inputs": [
        {
          "internalType": "bytes[]",
          "name": "data",
          "type": "bytes[]"
        }
      ],
      "name": "multicall",
      "outputs": [
        {
          "internalType": "bytes[]",
          "name": "results",
          "type": "bytes[]"
        }
      ],
      "stateMutability": "payable",
      "type": "function"
    },
    {
      "inputs": [],
      "name": "name",
      "outputs": [
        {
          "internalType": "string",
          "name": "",
          "type": "string"
        }
      ],
      "stateMutability": "view",
      "type": "function"
    },
    {
      "inputs": [],
      "name": "nftCount",
      "outputs": [
        {
          "internalType": "uint128",
          "name": "minted",
          "type": "uint128"
        },
        {
          "internalType": "uint128",
          "name": "burned",
          "type": "uint128"
        }
      ],
      "stateMutability": "view",
      "type": "function"
    },
    {
      "inputs": [
        {
          "internalType": "uint256",
          "name": "",
          "type": "uint256"
        }
      ],
      "name": "nonces",
      "outputs": [
        {
          "internalType": "uint256",
          "name": "",
          "type": "uint256"
        }
      ],
      "stateMutability": "view",
      "type": "function"
    },
    {
      "inputs": [
        {
          "internalType": "address",
          "name": "",
          "type": "address"
        }
      ],
      "name": "noncesForAll",
      "outputs": [
        {
          "internalType": "uint256",
          "name": "",
          "type": "uint256"
        }
      ],
      "stateMutability": "view",
      "type": "function"
    },
    {
      "inputs": [
        {
          "internalType": "uint256",
          "name": "id",
          "type": "uint256"
        }
      ],
      "name": "ownerOf",
      "outputs": [
        {
          "internalType": "address",
          "name": "owner",
          "type": "address"
        }
      ],
      "stateMutability": "view",
      "type": "function"
    },
    {
      "inputs": [
        {
          "internalType": "address",
          "name": "spender",
          "type": "address"
        },
        {
          "internalType": "uint256",
          "name": "tokenId",
          "type": "uint256"
        },
        {
          "internalType": "uint256",
          "name": "deadline",
          "type": "uint256"
        },
        {
          "internalType": "uint8",
          "name": "v",
          "type": "uint8"
        },
        {
          "internalType": "bytes32",
          "name": "r",
          "type": "bytes32"
        },
        {
          "internalType": "bytes32",
          "name": "s",
          "type": "bytes32"
        }
      ],
      "name": "permit",
      "outputs": [],
      "stateMutability": "nonpayable",
      "type": "function"
    },
    {
      "inputs": [
        {
          "internalType": "address",
          "name": "owner",
          "type": "address"
        },
        {
          "internalType": "address",
          "name": "operator",
          "type": "address"
        },
        {
          "internalType": "uint256",
          "name": "deadline",
          "type": "uint256"
        },
        {
          "internalType": "uint8",
          "name": "v",
          "type": "uint8"
        },
        {
          "internalType": "bytes32",
          "name": "r",
          "type": "bytes32"
        },
        {
          "internalType": "bytes32",
          "name": "s",
          "type": "bytes32"
        }
      ],
      "name": "permitAll",
      "outputs": [],
      "stateMutability": "nonpayable",
      "type": "function"
    },
    {
      "inputs": [
        {
          "internalType": "uint256",
          "name": "tokenId",
          "type": "uint256"
        }
      ],
      "name": "positionFees",
      "outputs": [
        {
          "internalType": "uint256",
          "name": "token0amount",
          "type": "uint256"
        },
        {
          "internalType": "uint256",
          "name": "token1amount",
          "type": "uint256"
        },
        {
          "internalType": "uint256",
          "name": "feeGrowthInside0",
          "type": "uint256"
        },
        {
          "internalType": "uint256",
          "name": "feeGrowthInside1",
          "type": "uint256"
        }
      ],
      "stateMutability": "view",
      "type": "function"
    },
    {
      "inputs": [
        {
          "internalType": "uint256",
          "name": "",
          "type": "uint256"
        }
      ],
      "name": "positions",
      "outputs": [
        {
          "internalType": "contract IConcentratedLiquidityPool",
          "name": "pool",
          "type": "address"
        },
        {
          "internalType": "uint128",
          "name": "liquidity",
          "type": "uint128"
        },
        {
          "internalType": "int24",
          "name": "lower",
          "type": "int24"
        },
        {
          "internalType": "int24",
          "name": "upper",
          "type": "int24"
        },
        {
          "internalType": "uint32",
          "name": "latestAddition",
          "type": "uint32"
        },
        {
          "internalType": "uint256",
          "name": "feeGrowthInside0",
          "type": "uint256"
        },
        {
          "internalType": "uint256",
          "name": "feeGrowthInside1",
          "type": "uint256"
        }
      ],
      "stateMutability": "view",
      "type": "function"
    },
    {
      "inputs": [
        {
          "internalType": "address",
          "name": "from",
          "type": "address"
        },
        {
          "internalType": "address",
          "name": "to",
          "type": "address"
        },
        {
          "internalType": "uint256",
          "name": "id",
          "type": "uint256"
        }
      ],
      "name": "safeTransferFrom",
      "outputs": [],
      "stateMutability": "nonpayable",
      "type": "function"
    },
    {
      "inputs": [
        {
          "internalType": "address",
          "name": "from",
          "type": "address"
        },
        {
          "internalType": "address",
          "name": "to",
          "type": "address"
        },
        {
          "internalType": "uint256",
          "name": "id",
          "type": "uint256"
        },
        {
          "internalType": "bytes",
          "name": "data",
          "type": "bytes"
        }
      ],
      "name": "safeTransferFrom",
      "outputs": [],
      "stateMutability": "nonpayable",
      "type": "function"
    },
    {
      "inputs": [
        {
          "internalType": "address",
          "name": "operator",
          "type": "address"
        },
        {
          "internalType": "bool",
          "name": "approved",
          "type": "bool"
        }
      ],
      "name": "setApprovalForAll",
      "outputs": [],
      "stateMutability": "nonpayable",
      "type": "function"
    },
    {
      "inputs": [
        {
          "internalType": "bytes4",
          "name": "interfaceId",
          "type": "bytes4"
        }
      ],
      "name": "supportsInterface",
      "outputs": [
        {
          "internalType": "bool",
          "name": "",
          "type": "bool"
        }
      ],
      "stateMutability": "view",
      "type": "function"
    },
    {
      "inputs": [],
      "name": "symbol",
      "outputs": [
        {
          "internalType": "string",
          "name": "",
          "type": "string"
        }
      ],
      "stateMutability": "view",
      "type": "function"
    },
    {
      "inputs": [],
      "name": "totalSupply",
      "outputs": [
        {
          "internalType": "uint256",
          "name": "",
          "type": "uint256"
        }
      ],
      "stateMutability": "view",
      "type": "function"
    },
    {
      "inputs": [
        {
          "internalType": "address",
          "name": "from",
          "type": "address"
        },
        {
          "internalType": "address",
          "name": "to",
          "type": "address"
        },
        {
          "internalType": "uint256",
          "name": "id",
          "type": "uint256"
        }
      ],
      "name": "transferFrom",
      "outputs": [],
      "stateMutability": "nonpayable",
      "type": "function"
    }
  ],
  "bytecode": {
    "object": "0x6101208060405234620000c357604081620040fd80380380916200002482856200011e565b833981010312620000c357806200004d602062000045620000549462000142565b920162000142565b906200018a565b6040516138a190816200085c823960805181613424015260a051816133fe015260c05181612abb015260e05181818161092a0152818161115c015281816116eb015281816129a101528181612a0501528181612b5a0152612bce015261010051818181611c1301526120b30152f35b600080fd5b50634e487b7160e01b600052604160045260246000fd5b6001600160401b038111620000f357604052565b620000fd620000c8565b604052565b604081019081106001600160401b03821117620000f357604052565b601f909101601f19168101906001600160401b03821190821017620000f357604052565b51906001600160a01b0382168203620000c357565b90816020910312620000c3576200016e9062000142565b90565b506040513d6000823e3d90fd5b6000910312620000c357565b62000194620002ea565b600980546001600160a01b0319166001179055600a80546001600160a01b03191660011790556001600160a01b03908116610100819052604051634da3182760e01b815290602090829060049082905afa9081156200029d575b60009162000268575b5016803b15620000c35760405163577268d960e11b815260008160048183865af1801562000258575b6200023a575b5060e05260c0526200023830620006ca565b565b806200024a6200025192620000df565b806200017e565b3862000226565b6200026262000171565b62000220565b6200028e915060203d811162000295575b6200028581836200011e565b81019062000157565b38620001f7565b503d62000279565b620002a762000171565b620001ee565b60405190620002bc8262000102565b60048252565b60405190620002d18262000102565b600a825269151c9a59195b9d13919560b21b6020830152565b620002f4620002c2565b90620002ff620002ad565b631d13919560e21b60208281019190915283516001600160401b03811162000422575b6000916200033c8262000336855462000432565b6200046f565b80601f83116001146200039357508190620003749596849262000387575b50508160011b916000199060031b1c191617905562000523565b4660a0526200038262000625565b608052565b0151905038806200035a565b60008052601f198316967f290decd9548b62a8d60345a988386fc84ba6bc95484008f6362f93160ef3e563929185905b898210620004095750509083929160019462000374989910620003ef575b505050811b01905562000523565b015160001960f88460031b161c19169055388080620003e1565b80600185968294968601518155019501930190620003c3565b6200042c620000c8565b62000322565b90600182811c9216801562000464575b60208310146200044e57565b634e487b7160e01b600052602260045260246000fd5b91607f169162000442565b601f81116200047c575050565b60009081805260208220906020601f850160051c83019410620004bc575b601f0160051c01915b828110620004b057505050565b818155600101620004a3565b90925082906200049a565b90601f8211620004d5575050565b60019160009083825260208220906020601f850160051c8301941062000518575b601f0160051c01915b8281106200050d5750505050565b8181558301620004ff565b9092508290620004f6565b80519091906001600160401b03811162000615575b60019062000552816200054c845462000432565b620004c7565b602080601f83116001146200059057508192939460009262000584575b5050600019600383901b1c191690821b179055565b0151905038806200056f565b6001600052601f198316959091907fb10e2d527612073b26eecdfd717e6a320cf44b4afac2b0732d9fcbe2b7fa0cf6926000905b888210620005fd5750508385969710620005e3575b505050811b019055565b015160001960f88460031b161c19169055388080620005d9565b808785968294968601518155019501930190620005c4565b6200061f620000c8565b62000538565b6200062f620002c2565b6020815191012060016020604051620006488162000102565b82815201603160f81b8152206040519060208201927f8b73c3c69bb8fe3d512ecc4cf759cc79239f7b179b0ffacaa9a75d522b39400f8452604083015260608201524660808201523060a082015260a0815260c0810181811060018060401b03821117620006ba575b60405251902090565b620006c4620000c8565b620006b1565b6006546001600160801b03808216929190838114620008075760018401166001600160801b031991909116176006556001600160a01b038116908115620007ce57620007a490620007516200074a6200073e62000731876000526002602052604060002090565b546001600160a01b031690565b6001600160a01b031690565b156200081d565b6001600160a01b03811660009081526003602052604090208054600101905562000785846000526002602052604060002090565b80546001600160a01b0319166001600160a01b03909216919091179055565b60007fddf252ad1be2c89b69c2b068fc378daa952ba7f163c4a11628f55a4df523b3ef81604051a4565b60405162461bcd60e51b81526020600482015260116024820152701253959053125117d49150d25412515395607a1b6044820152606490fd5b634e487b7160e01b600052601160045260246000fd5b156200082557565b60405162461bcd60e51b815260206004820152600e60248201526d1053149150511657d3525395115160921b6044820152606490fdfe60806040526004361015610013575b600080fd5b60003560e01c806301ffc9a71461026b57806306fdde0314610262578063081812fc14610259578063095ea7b3146102505780630af2c6ca14610247578063141a468c1461023e57806318160ddd1461023557806323b872dd1461022c57806330adf81f146102235780633644e5151461021a5780633f0331871461021157806342842e0e146102085780634da31827146101ff5780636352211e146101f65780636c4bbbed146101ed57806370a08231146101e45780637ac2ff7b146101db5780638c6ab013146101d2578063904dfb8e146101c957806395d89b41146101c057806399fbab88146101b7578063a22cb465146101ae578063a7c1d448146101a5578063aba078471461019c578063ac9650d814610193578063b4e13c8d1461018a578063b88d4fde14610181578063cf58879a14610178578063e985e9c51461016f5763ed7bba9a1461016757600080fd5b61000e611ca2565b5061000e611c37565b5061000e611bf2565b5061000e611b7e565b5061000e611b42565b5061000e611a3f565b5061000e611833565b5061000e611616565b5061000e611578565b5061000e6114e5565b5061000e611423565b5061000e6113e4565b5061000e611040565b5061000e610e46565b5061000e610da3565b5061000e61097e565b5061000e61094e565b5061000e610909565b5061000e6107fd565b5061000e61076a565b5061000e61070b565b5061000e6106cf565b5061000e6106b7565b5061000e610653565b5061000e610626565b5061000e6105f6565b5061000e6105ca565b5061000e610583565b5061000e61047d565b5061000e61029e565b7fffffffff0000000000000000000000000000000000000000000000000000000081160361000e57565b503461000e57602060031936011261000e5760207fffffffff000000000000000000000000000000000000000000000000000000006004356102df81610274565b167f01ffc9a7000000000000000000000000000000000000000000000000000000008114908115610347575b811561031d575b506040519015158152f35b7f5b5e139f0000000000000000000000000000000000000000000000000000000091501438610312565b7f80ac58cd000000000000000000000000000000000000000000000000000000008114915061030b565b600091031261000e57565b50634e487b7160e01b600052604160045260246000fd5b67ffffffffffffffff81116103a757604052565b6103af61037c565b604052565b6040810190811067ffffffffffffffff8211176103a757604052565b60c0810190811067ffffffffffffffff8211176103a757604052565b90601f601f19910116810190811067ffffffffffffffff8211176103a757604052565b918091926000905b82821061042f575011610428575050565b6000910152565b91508060209183015181860152018291610417565b90601f19601f6020936104628151809281875287808801910161040f565b0116010190565b90602061047a928181520190610444565b90565b503461000e5760008060031936011261058057604051908080549060019180831c92808216928315610576575b602092838610851461056257858852602088019490811561054657506001146104ee575b6104ea876104de818903826103ec565b60405191829182610469565b0390f35b6000805294509192917f290decd9548b62a8d60345a988386fc84ba6bc95484008f6362f93160ef3e5635b83861061053557505050910190506104de826104ea38806104ce565b805485870152948201948101610519565b60ff191685525050500191506104de9050826104ea38806104ce565b602482634e487b7160e01b81526022600452fd5b93607f16936104aa565b80fd5b503461000e57602060031936011261000e57600435600052600460205260206001600160a01b0360406000205416604051908152f35b6001600160a01b0381160361000e57565b503461000e57604060031936011261000e576105f46004356105eb816105b9565b60243590612f64565b005b503461000e57600060031936011261000e5760406006548151906001600160801b038116825260801c6020820152f35b503461000e57602060031936011261000e5760043560005260076020526020604060002054604051908152f35b503461000e57600060031936011261000e5760206006546106826001600160801b0391828160801c911661269e565b16604051908152f35b600319606091011261000e576004356106a3816105b9565b906024356106b0816105b9565b9060443590565b503461000e576105f46106c93661068b565b916130e2565b503461000e57600060031936011261000e5760206040517f49ecf333e5b8c95c40fdafc95c1ad136e8914a8fb55e9dc8bb01eaa83a2df9ad8152f35b503461000e57600060031936011261000e5760206107276133fb565b604051908152f35b606435908160020b820361000e57565b608435908160020b820361000e57565b6001600160801b0381160361000e57565b8015150361000e57565b5061014060031936011261000e57600435610784816105b9565b6024358060020b810361000e57604435908160020b820361000e576104ea926107ed926107af61072f565b6107b761073f565b60a435906107c48261074f565b60c435926107d18461074f565b60e435946107de86610760565b61012435976101043597612036565b6040519081529081906020820190565b503461000e576105f461080f3661068b565b909161081c8284836130e2565b823b1592831561082f575b50505061329c565b7fffffffff0000000000000000000000000000000000000000000000000000000092935060009160a460209260405194859384927f150b7a0200000000000000000000000000000000000000000000000000000000998a85523360048601526001600160a01b038093166024860152604485015260806064850152826084850152165af19081156108fc575b6000916108ce575b501614388080610827565b6108ef915060203d81116108f5575b6108e781836103ec565b810190613287565b386108c3565b503d6108dd565b610904611cee565b6108bb565b503461000e57600060031936011261000e5760206040516001600160a01b037f0000000000000000000000000000000000000000000000000000000000000000168152f35b503461000e57602060031936011261000e57602061096d600435612ef6565b6001600160a01b0360405191168152f35b503461000e5760c060031936011261000e5760243560043561099f8261074f565b604435906109ac826105b9565b606435916109b983610760565b83906000936109e06109d96109cd86612ef6565b6001600160a01b031690565b3314611e6c565b6109fc6109f785600052600b602052604060002090565b6125d3565b91610a0685612765565b9199610a1c60208801516001600160801b031690565b906001600160801b0380831691161015610c695750610aba9850608087610a4d6109cd89516001600160a01b031690565b604089015160020b6000610a6560608c015160020b90565b6040517fa34123a7000000000000000000000000000000000000000000000000000000008152600293840b6004820152920b60248301526001600160801b0390931660448201529b8c92839182906064820190565b03925af18015610c5c575b6000998a91610c02575b5093610bac969389610b9f946109cd98946002610afb6109cd9a9f94600052600b602052604060002090565b01556003610b138d600052600b602052604060002090565b0155610b6c6001610b2e8d600052600b602052604060002090565b01610b498c610b4483546001600160801b031690565b61269e565b6001600160801b03166fffffffffffffffffffffffffffffffff19825416179055565b60843581101580610bf6575b610b8190611d75565b019a8b9a019a8b91610b9a86516001600160a01b031690565b612890565b516001600160a01b031690565b6040516001600160801b0392909216825233917fa246c3c6c374294b514c67820df22c91e7d4946b79d7e9fbcdc2a9ea99036ce090602090a4604080519182526020820192909252f35b5060a4358c1015610b78565b610afb9a506109cd9591509389610b9f946109cd98946002610c3e610bac9c9960803d8111610c55575b610c3681836103ec565b81019061267c565b50509f909f969a5050509498509450509396610acf565b503d610c2c565b610c64611cee565b610ac5565b809750610cf692506080915096610c8a6109cd88516001600160a01b031690565b604088015160020b8b610ca160608b015160020b90565b6040517fa34123a7000000000000000000000000000000000000000000000000000000008152600293840b6004820152920b60248301526001600160801b039093166044820152938492839182906064820190565b03925af1908115610d96575b8891610d59575b506109cd936109cd93610bac9693610b9f939a610d258b613668565b610d54610d3c8c600052600b602052604060002090565b60036000918281558260018201558260028201550155565b610b6c565b610bac95929850610b9f9150936109cd93610d846109cd9660803d8111610c5557610c3681836103ec565b50509a909a9350939650935093610d09565b610d9e611cee565b610d02565b503461000e57602060031936011261000e576001600160a01b03600435610dc9816105b9565b168015610df25760005260036020526104ea604060002054604051918291829190602083019252565b606460405162461bcd60e51b815260206004820152600c60248201527f5a45524f5f4144445245535300000000000000000000000000000000000000006044820152fd5b6064359060ff8216820361000e57565b503461000e5760c060031936011261000e576105f4600435610e67816105b9565b60243590610fe260443560206000610e7d610e36565b610e8942851015613738565b610e9287612ef6565b93610f73610f7f610ea16133fb565b92898b610f1b610ebb826000526007602052604060002090565b938454946001860190556040519485938c85019586909493926080926001600160a01b0360a08401977f49ecf333e5b8c95c40fdafc95c1ad136e8914a8fb55e9dc8bb01eaa83a2df9ad8552166020840152604083015260608201520152565b0391610f2f601f19938481018352826103ec565b519020604051938491898301968790916042927f19010000000000000000000000000000000000000000000000000000000000008352600283015260228201520190565b039081018352826103ec565b5190206040805191825260ff9290921660208201526084359181019190915260a435606082015281805260809060015afa15611033575b6000516001600160a01b0380821690610fd0821515613783565b831614918215610fe7575b50506137ce565b612f64565b61102c92509061100d611025926001600160a01b03166000526005602052604060002090565b906001600160a01b0316600052602052604060002090565b5460ff1690565b3880610fdb565b61103b611cee565b610fb6565b503461000e57606060031936011261000e57602435600435611061826105b9565b6044359061106e82610760565b6000916110806109d96109cd84612ef6565b61109482600052600b602052604060002090565b926110a96109cd85546001600160a01b031690565b946040938451907fbcdb4dad0000000000000000000000000000000000000000000000000000000082526101009182816004818c5afa9283156113d7575b8593611399575b50506110f990612765565b60038a0155600289015586517ff7888aec000000000000000000000000000000000000000000000000000000008082526001600160a01b038781166004840152306024840152929a93998b978b95909486948a946020948e949293909186918c917f0000000000000000000000000000000000000000000000000000000000000000909116908387604481855afa96871561138c575b600097611367575b5096519687526001600160a01b0390911660048701523060248701529394929391929182908180604481015b03915afa94851561135a575b60009561132b575b50508583108015611322575b61121e575b5089876104ea8e6112088f858f8f6112038f8984879261292e565b61292e565b5191825260208201929092529081906040820190565b600101548c517f600b5b58000000000000000000000000000000000000000000000000000000008152608082901c600290810b600483015260989290921c90910b602482015298995096979496939550919390929091908a90839060449082906000905af1918215611315575b60009081936112da575b506112ab916112a39161274e565b92839261274e565b93116112d2575b5081106112ca575b8793929181808080808c966111e8565b9650826112ba565b9750816112b2565b6112ab9293506112a39150611304908c8d3d1061130e575b6112fc81836103ec565b810190611dc0565b9390915091611295565b503d6112f2565b61131d611cee565b61128b565b508484106111e3565b61134b929550803d10611353575b61134381836103ec565b810190611d66565b9238806111d7565b503d611339565b611362611cee565b6111cf565b6111c39596975061138490853d87116113535761134381836103ec565b969594611197565b611394611cee565b61118f565b6110f995506113be929350803d106113d0575b6113b681836103ec565b8101906126d2565b999650945050505050939190386110ee565b503d6113ac565b6113df611cee565b6110e7565b503461000e57602060031936011261000e576001600160a01b0360043561140a816105b9565b1660005260086020526020604060002054604051908152f35b503461000e57600080600319360112610580576040519080600190815480831c928082169283156114db575b60209283861085146105625785885260208801949081156105465750600114611482576104ea876104de818903826103ec565b600160005294509192917fb10e2d527612073b26eecdfd717e6a320cf44b4afac2b0732d9fcbe2b7fa0cf65b8386106114ca57505050910190506104de826104ea38806104ce565b8054858701529482019481016114ae565b93607f169361144f565b503461000e57602060031936011261000e576004356000908152600b60209081526040918290208054600182015460028084015460039094015486516001600160a01b0390941684526001600160801b03831695840195909552608082811c820b96840196909652609882901c900b606083015260b01c63ffffffff169381019390935260a083015260c082015260e090f35b503461000e57604060031936011261000e57600435611596816105b9565b6001600160a01b03602435916115ab83610760565b3360005260056020526115d5816040600020906001600160a01b0316600052602052604060002090565b9215159260ff1981541660ff851617905560405192835216907f17307eab39ab6107e8899845ad3d59bd9653f200f220920489ca2b5937696c3160203392a3005b503461000e5760a060031936011261000e57600435611634816105b9565b60243590611641826105b9565b604435916064359160843561165581610760565b61167461166d6109cd600a546001600160a01b031690565b3314612588565b156116df576116af9361169b9133906116956009546001600160a01b031690565b90612aac565b33906116956009546001600160a01b031690565b6116c760016001600160a01b03196009541617600955565b6105f460016001600160a01b0319600a541617600a55565b91926001600160a01b037f0000000000000000000000000000000000000000000000000000000000000000169061171e6009546001600160a01b031690565b823b1561000e576040517ff18d03cc000000000000000000000000000000000000000000000000000000008082526001600160a01b0396871660048301529190951660248601523360448601526064850191909152600093848160848183875af18015611826575b611813575b506009546001600160a01b031690823b1561180f576040519081526001600160a01b039384166004820152921660248301523360448301526064820193909352918290608490829084905af18015611802575b6117e9575b506116af565b806117f66117fc92610393565b80610371565b386117e3565b61180a611cee565b6117de565b8480fd5b806117f661182092610393565b3861178b565b61182e611cee565b611786565b503461000e5760c060031936011261000e576105f4600435611854816105b9565b61197460243591611864836105b9565b60206000604435611873610e36565b9061188042821015613738565b610f7361191461188e6133fb565b92896118ad896001600160a01b03166000526008602052604060002090565b805490600182019055610f1b6040519384928b8401948d86909260809295949360a08301967fdaab21af31ece73a508939fedd476a5ee5129a5ed4bb091f3236ffb45394df6284526001600160a01b03809216602085015216604083015260608201520152565b5190206040805191825260ff9290921660208201526084359181019190915260a435606082015281805260809060015afa156119b2575b6000516001600160a01b039182821680151593846119a6575b50508215611979575b5050613783565b613028565b61199f92509061100d611025926001600160a01b03166000526005602052604060002090565b388061196d565b82161492503880611964565b6119ba611cee565b61194b565b602080820190808352835180925260408301928160408460051b8301019501936000915b8483106119f35750505050505090565b9091929394958480611a2f837fffffffffffffffffffffffffffffffffffffffffffffffffffffffffffffffc086600196030187528a51610444565b98019301930191949392906119e3565b50602060031936011261000e576004803567ffffffffffffffff9182821161000e573660238301121561000e578181013592831161000e57602490818301928236918660051b01011161000e57611a9584612cf3565b9360005b818110611aae57604051806104ea88826119bf565b600080611abc838589612d53565b60409391611ace855180938193612dc1565b0390305af490611adc612dfa565b91829015611b0657505090600191611af48289612e89565b52611aff8188612e89565b5001611a99565b86838792604482511061000e5782611b3e9385611b299401518301019101612e2a565b925192839262461bcd60e51b84528301610469565b0390fd5b503461000e57600060031936011261000e5760206040517fdaab21af31ece73a508939fedd476a5ee5129a5ed4bb091f3236ffb45394df628152f35b503461000e57608060031936011261000e57600435611b9c816105b9565b60243590611ba9826105b9565b6064359167ffffffffffffffff9182841161000e573660238501121561000e57836004013592831161000e57366024848601011161000e5760246105f4940191604435916132e7565b503461000e57600060031936011261000e5760206040516001600160a01b037f0000000000000000000000000000000000000000000000000000000000000000168152f35b503461000e57604060031936011261000e57602060ff611c96600435611c5c816105b9565b6001600160a01b0360243591611c71836105b9565b16600052600584526040600020906001600160a01b0316600052602052604060002090565b54166040519015158152f35b503461000e57602060031936011261000e576080611cc1600435612765565b91604051938452602084015260408301526060820152f35b9081602091031261000e575161047a81610760565b506040513d6000823e3d90fd5b15611d0257565b606460405162461bcd60e51b815260206004820152600c60248201527f494e56414c49445f504f4f4c00000000000000000000000000000000000000006044820152fd5b6040519060e0820182811067ffffffffffffffff8211176103a757604052565b9081602091031261000e575190565b15611d7c57565b606460405162461bcd60e51b815260206004820152601360248201527f544f4f5f4c4954544c455f5245434549564544000000000000000000000000006044820152fd5b919082604091031261000e576020825192015190565b15611ddd57565b606460405162461bcd60e51b815260206004820152600e60248201527f504f4f4c5f4d49535f4d415443480000000000000000000000000000000000006044820152fd5b15611e2857565b606460405162461bcd60e51b815260206004820152600f60248201527f52414e47455f4d49535f4d4154434800000000000000000000000000000000006044820152fd5b15611e7357565b606460405162461bcd60e51b815260206004820152600c60248201527f4e4f545f49445f4f574e455200000000000000000000000000000000000000006044820152fd5b50634e487b7160e01b600052601160045260246000fd5b906001600160801b038080931691168092038111611eea570190565b611ef2611eb7565b0190565b9060c0600391611f266001600160a01b0382511685906001600160a01b03166001600160a01b0319825416179055565b61202560018501611f636001600160801b0360208501511682906001600160801b03166fffffffffffffffffffffffffffffffff19825416179055565b604083015181547fffffffffffffffffffff000000000000ffffffffffffffffffffffffffffffff72ffffff00000000000000000000000000000000606087015160981b75ffffff00000000000000000000000000000000000000169360801b16911617178155611fdb608084015163ffffffff1690565b7fffffffffffff00000000ffffffffffffffffffffffffffffffffffffffffffff79ffffffff0000000000000000000000000000000000000000000083549260b01b169116179055565b60a081015160028501550151910155565b9661216c61220495999761215c859d9c9861214260209861213861217598998f6001600160a01b0361211a916120eb6040517fa4063dbc000000000000000000000000000000000000000000000000000000008152602081806120ae878716600483019190916001600160a01b036020820193169052565b0381877f0000000000000000000000000000000000000000000000000000000000000000165afa90811561257b575b60009161254c575b50611cfb565b600980546001600160a01b03191633179055166001600160a01b03166001600160a01b0319600a541617600a55565b61212f612125611d46565b9b8c9060020b9052565b60020b8a8c0152565b60020b6040890152565b60028d900b60608801526001600160801b03166080870152565b6001600160801b031660a0850152565b151560c0830152565b604051809381927f4d7b7ed10000000000000000000000000000000000000000000000000000000083526004830191909160c08060e0830194805160020b8452602081015160020b6020850152604081015160020b6040850152606081015160020b60608501526001600160801b0380608083015116608086015260a08201511660a085015201511515910152565b038160006001600160a01b0389165af190811561253f575b600091612520575b5061223c6001600160801b0380921693841015611d75565b604080517facfe88f8000000000000000000000000000000000000000000000000000000008152600289810b600483015287900b60248201529190826044816001600160a01b0389165afa928315612513575b60009283946124ec575b50806123b65750509561233891612309976122cb6122bf6006546001600160801b031690565b6001600160801b031690565b9889976122ff6122d9611d46565b6001600160a01b038a168152956001600160801b038916602088015260020b6040870152565b60020b6060850152565b4263ffffffff16608084015260a083015260c082015261233385600052600b602052604060002090565b611ef6565b6123413361355f565b6040516001600160801b0391909116815233916001600160a01b0316907fc8dd8ccfbeefd448504efbf8f0f1228f3874a3556303d43aec4cc814237755f490602090a461239c60016001600160a01b03196009541617600955565b6123b460016001600160a01b0319600a541617600a55565b565b8481999793928a986123d284600052600b602052604060002090565b966001600160a01b038a1688546123ef906001600160a01b031690565b6001600160a01b03166001600160a01b03161461240b90611dd6565b600188019687549260020b8360801c60020b149861248b97612459612466986124408d6003966124d49f6124d9575b50611e21565b6001600160a01b036124523392612ef6565b1614611e6c565b6002820155015516611ece565b82906001600160801b03166fffffffffffffffffffffffffffffffff19825416179055565b80547fffffffffffff00000000ffffffffffffffffffffffffffffffffffffffffffff164260b01b79ffffffff0000000000000000000000000000000000000000000016179055565b612341565b905060020b8860981c60020b143861243a565b90935061250991925060403d60401161130e576112fc81836103ec565b9190919238612299565b61251b611cee565b61228f565b612539915060203d6020116113535761134381836103ec565b38612224565b612547611cee565b61221c565b602061256e92503d602011612574575b61256681836103ec565b810190611cd9565b386120e5565b503d61255c565b612583611cee565b6120dd565b1561258f57565b606460405162461bcd60e51b815260206004820152601560248201527f554e415554484f52495a45445f43414c4c4241434b00000000000000000000006044820152fd5b9060405160e0810181811067ffffffffffffffff82111761266f575b60405260c0600382946001600160a01b03815416845261265e63ffffffff60018301546126316001600160801b03821660208901906001600160801b03169052565b608081901c60020b6040880152609881901c60020b606088015260b01c16608086019063ffffffff169052565b600281015460a08501520154910152565b61267761037c565b6125ef565b919082608091031261000e578151916020810151916060604083015192015190565b6001600160801b0391821691168181106126b6570390565b6126be611eb7565b0390565b519062ffffff8216820361000e57565b91908261010091031261000e5781516126ea8161074f565b916126f7602082016126c2565b91612704604083016126c2565b916060810151612713816105b9565b916080820151612722816105b9565b9160a0810151612731816105b9565b9160e060c0830151612742816105b9565b92015161047a816105b9565b81198111611eea570190565b8181106126b6570390565b6109f761277c91600052600b602052604060002090565b906127f260406127966109cd85516001600160a01b031690565b8482015160020b906127ac606087015160020b90565b83517facfe88f8000000000000000000000000000000000000000000000000000000008152600293840b6004820152920b60248301529092839190829081906044820190565b03915afa8015612883575b6000918291612863575b50612860816128436122bf6128526128248760a08b01519061275a565b9360c061284960208c01966128436122bf89516001600160801b031690565b90613819565b9a01519061275a565b92516001600160801b031690565b92565b905061287d915060403d811161130e576112fc81836103ec565b38612807565b61288b611cee565b6127fd565b8190856123b49695946001600160a01b03604051937fbcdb4dad00000000000000000000000000000000000000000000000000000000855284600481610100948594165afa938415612921575b60009182956128f4575b505093611203939461292e565b611203955061290f9250803d106113d0576113b681836103ec565b9990965094503893506128e792505050565b612929611cee565b6128dd565b9091926000146129f957604080517f97da6d300000000000000000000000000000000000000000000000000000000081526001600160a01b039283166004820152306024820152919092166044820152600060648201526084810192909252818060a48101038160006001600160a01b037f0000000000000000000000000000000000000000000000000000000000000000165af180156129ec575b6129d15750565b6129e89060403d811161130e576112fc81836103ec565b5050565b6129f4611cee565b6129ca565b90916001600160a01b037f000000000000000000000000000000000000000000000000000000000000000016803b1561000e576040517ff18d03cc0000000000000000000000000000000000000000000000000000000081526001600160a01b03938416600482015230602482015293909216604484015260648301526000908290608490829084905af18015612a9f575b612a925750565b806117f66123b492610393565b612aa7611cee565b612a8b565b9291906001600160a01b0390817f0000000000000000000000000000000000000000000000000000000000000000168286161480612cc3575b612b89575b600060409495612b568651978896879586947f02b9446c00000000000000000000000000000000000000000000000000000000865260048601909493929160809260a08301966001600160a01b0392838092168552166020840152166040820152600060608201520152565b03927f0000000000000000000000000000000000000000000000000000000000000000165af180156129ec576129d15750565b6040517f566231180000000000000000000000000000000000000000000000000000000081526001600160a01b038616600482015260248101859052600160448201527f0000000000000000000000000000000000000000000000000000000000000000831690602081606481855afa908115612cb6575b600091612c98575b5080471015612c19575050612aea565b909250612c87955060409493918551968795869485937f02b9446c000000000000000000000000000000000000000000000000000000008552600485016080919493929460a0820195600083526001600160a01b038092166020840152166040820152600060608201520152565b03925af180156129ec576129d15750565b612cb0915060203d81116113535761134381836103ec565b38612c09565b612cbe611cee565b612c01565b50471515612ae5565b60209067ffffffffffffffff8111612ce6575b60051b0190565b612cee61037c565b612cdf565b90612cfd82612ccc565b612d0a60405191826103ec565b828152601f19612d1a8294612ccc565b019060005b828110612d2b57505050565b806060602080938501015201612d1f565b50634e487b7160e01b600052603260045260246000fd5b9190811015612db4575b60051b810135907fffffffffffffffffffffffffffffffffffffffffffffffffffffffffffffffe18136030182121561000e57019081359167ffffffffffffffff831161000e57602001823603811361000e579190565b612dbc612d3c565b612d5d565b908092918237016000815290565b601f19601f60209267ffffffffffffffff8111612ded575b01160190565b612df561037c565b612de7565b3d15612e25573d90612e0b82612dcf565b91612e1960405193846103ec565b82523d6000602084013e565b606090565b60208183031261000e5780519067ffffffffffffffff821161000e570181601f8201121561000e578051612e5d81612dcf565b92612e6b60405194856103ec565b8184526020828401011161000e5761047a916020808501910161040f565b6020918151811015612e9e575b60051b010190565b612ea6612d3c565b612e96565b15612eb257565b606460405162461bcd60e51b815260206004820152600a60248201527f4e4f545f4d494e544544000000000000000000000000000000000000000000006044820152fd5b60005260026020526001600160a01b0360406000205416906123b4821515612eab565b15612f2057565b606460405162461bcd60e51b815260206004820152600e60248201527f4e4f545f415554484f52495a45440000000000000000000000000000000000006044820152fd5b8160005260026020526001600160a01b038060406000205416918233148015612fef575b612f9190612f19565b612fc481612fa9866000526004602052604060002090565b906001600160a01b03166001600160a01b0319825416179055565b16907f8c5be1e5ebec7d5bd14f71427d1e84f3dd0314c0f7b2291e5b200ac8c7c3b9256000604051a4565b50826000526005602052612f9160ff61301f336040600020906001600160a01b0316600052602052604060002090565b54169050612f88565b336000526005602052613052816040600020906001600160a01b0316600052602052604060002090565b600160ff198254161790556001600160a01b03604051916001835216907f17307eab39ab6107e8899845ad3d59bd9653f200f220920489ca2b5937696c3160203392a3565b1561309e57565b606460405162461bcd60e51b815260206004820152601160248201527f494e56414c49445f524543495049454e540000000000000000000000000000006044820152fd5b906001600160a01b0380613100856000526002602052604060002090565b5416918184169283036132435761315561319592821694613122861515613097565b8433148015613219575b80156131e5575b61313c90612f19565b6001600160a01b03166000526003602052604060002090565b805460001901905561317a816001600160a01b03166000526003602052604060002090565b80546001019055612fa9856000526002602052604060002090565b6131bc6131ac846000526004602052604060002090565b6001600160a01b03198154169055565b7fddf252ad1be2c89b69c2b068fc378daa952ba7f163c4a11628f55a4df523b3ef6000604051a4565b5061313c6132106109cd6132038a6000526004602052604060002090565b546001600160a01b031690565b33149050613133565b5061323e6110253361100d846001600160a01b03166000526005602052604060002090565b61312c565b606460405162461bcd60e51b815260206004820152600a60248201527f57524f4e475f46524f4d000000000000000000000000000000000000000000006044820152fd5b9081602091031261000e575161047a81610274565b156132a357565b606460405162461bcd60e51b815260206004820152601060248201527f554e534146455f524543495049454e54000000000000000000000000000000006044820152fd5b6132f28383836130e2565b813b1593841561330b575b505050506123b4915061329c565b859293945060405195869384927f150b7a0200000000000000000000000000000000000000000000000000000000978885523360048601526001600160a01b0380961660248601526044850152606484016080905281608485015260a484013780820160a40160009052601f01601f191681010360a401921691815a602094600091f16123b4927fffffffff00000000000000000000000000000000000000000000000000000000919081156133ee575b6000916133d0575b501614388080806132fd565b6133e8915060203d81116108f5576108e781836103ec565b386133c4565b6133f6611cee565b6133bc565b467f000000000000000000000000000000000000000000000000000000000000000003613446577f000000000000000000000000000000000000000000000000000000000000000090565b7f54726964656e744e4654000000000000000000000000000000000000000000006020604051613475816103b4565b600a815201527f310000000000000000000000000000000000000000000000000000000000000060206040516134aa816103b4565b60018152015260405160208101907f8b73c3c69bb8fe3d512ecc4cf759cc79239f7b179b0ffacaa9a75d522b39400f82527f790a7a9b65ea2ce0cf93ce97615ad3ceeb0a6082b5ad238c5227302f947047b060408201527fc89efdaa54c0f20c7adf612882df0950f5a951637e0307cdcb4c672f298b8bc660608201524660808201523060a082015260a08152613540816103d0565b51902090565b6001906001600160801b03809116908114611eea570190565b600654906001600160801b03916fffffffffffffffffffffffffffffffff198382169361358b85613546565b169116176006556001600160a01b0390818116916135aa831515613097565b8360005260026020526040600020541661362457806135df6135fa926001600160a01b03166000526003602052604060002090565b80546001019055612fa9846000526002602052604060002090565b60007fddf252ad1be2c89b69c2b068fc378daa952ba7f163c4a11628f55a4df523b3ef81604051a4565b606460405162461bcd60e51b815260206004820152600e60248201527f414c52454144595f4d494e5445440000000000000000000000000000000000006044820152fd5b6006546001600160801b036fffffffffffffffffffffffffffffffff196136918360801c613546565b60801b16911617600655600081815260026020526001600160a01b036040822054166136be811515612eab565b80825260036020526040822060001981540190556136e6836000526002602052604060002090565b6001600160a01b03199081815416905561370a846000526004602052604060002090565b9081541690557fddf252ad1be2c89b69c2b068fc378daa952ba7f163c4a11628f55a4df523b3ef82604051a4565b1561373f57565b606460405162461bcd60e51b815260206004820152601760248201527f5045524d49545f444541444c494e455f455850495245440000000000000000006044820152fd5b1561378a57565b606460405162461bcd60e51b815260206004820152601860248201527f494e56414c49445f5045524d49545f5349474e415455524500000000000000006044820152fd5b156137d557565b606460405162461bcd60e51b815260206004820152600e60248201527f494e56414c49445f5349474e45520000000000000000000000000000000000006044820152fd5b600019828209908281029283808410930392808403931461386257700100000000000000000000000000000000918383111561000e570990828211900360801b910360801c1790565b50505060801c9056fea2646970667358221220d8465e64440d940e772c30e98b24a6912c1b4c588de8e32232365c774e4c0c2b64736f6c634300080e0033",
    "linkReferences": {}
  },
  "methodIdentifiers": {
    "DOMAIN_SEPARATOR()": "3644e515",
    "PERMIT_ALL_TYPEHASH()": "b4e13c8d",
    "PERMIT_TYPEHASH()": "30adf81f",
    "approve(address,uint256)": "095ea7b3",
    "balanceOf(address)": "70a08231",
    "bento()": "4da31827",
    "burn(uint256,uint128,address,bool,uint256,uint256)": "6c4bbbed",
    "collect(uint256,address,bool)": "8c6ab013",
    "getApproved(uint256)": "081812fc",
    "isApprovedForAll(address,address)": "e985e9c5",
    "masterDeployer()": "cf58879a",
    "mint(address,int24,int24,int24,int24,uint128,uint128,bool,uint256,uint256)": "3f033187",
    "mintCallback(address,address,uint256,uint256,bool)": "a7c1d448",
    "multicall(bytes[])": "ac9650d8",
    "name()": "06fdde03",
    "nftCount()": "0af2c6ca",
    "nonces(uint256)": "141a468c",
    "noncesForAll(address)": "904dfb8e",
    "ownerOf(uint256)": "6352211e",
    "permit(address,uint256,uint256,uint8,bytes32,bytes32)": "7ac2ff7b",
    "permitAll(address,address,uint256,uint8,bytes32,bytes32)": "aba07847",
    "positionFees(uint256)": "ed7bba9a",
    "positions(uint256)": "99fbab88",
    "safeTransferFrom(address,address,uint256)": "42842e0e",
    "safeTransferFrom(address,address,uint256,bytes)": "b88d4fde",
    "setApprovalForAll(address,bool)": "a22cb465",
    "supportsInterface(bytes4)": "01ffc9a7",
    "symbol()": "95d89b41",
    "totalSupply()": "18160ddd",
    "transferFrom(address,address,uint256)": "23b872dd"
  },
  "id": 3
}