{
  "abi": [
    {
      "inputs": [
        {
          "internalType": "address",
          "name": "_masterDeployer",
          "type": "address"
        }
      ],
      "stateMutability": "nonpayable",
      "type": "constructor"
    },
    {
      "inputs": [],
      "name": "WrongTokenOrder",
      "type": "error"
    },
    {
      "inputs": [],
      "name": "ZeroAddress",
      "type": "error"
    },
    {
      "inputs": [
        {
          "internalType": "bytes32",
          "name": "",
          "type": "bytes32"
        }
      ],
      "name": "configAddress",
      "outputs": [
        {
          "internalType": "address",
          "name": "",
          "type": "address"
        }
      ],
      "stateMutability": "view",
      "type": "function"
    },
    {
      "inputs": [
        {
          "internalType": "bytes",
          "name": "_deployData",
          "type": "bytes"
        }
      ],
      "name": "deployPool",
      "outputs": [
        {
          "internalType": "address",
          "name": "pool",
          "type": "address"
        }
      ],
      "stateMutability": "nonpayable",
      "type": "function"
    },
    {
      "inputs": [
        {
          "internalType": "address",
          "name": "token0",
          "type": "address"
        },
        {
          "internalType": "address",
          "name": "token1",
          "type": "address"
        },
        {
          "internalType": "uint256",
          "name": "startIndex",
          "type": "uint256"
        },
        {
          "internalType": "uint256",
          "name": "count",
          "type": "uint256"
        }
      ],
      "name": "getPools",
      "outputs": [
        {
          "internalType": "address[]",
          "name": "pairPools",
          "type": "address[]"
        }
      ],
      "stateMutability": "view",
      "type": "function"
    },
    {
      "inputs": [],
      "name": "masterDeployer",
      "outputs": [
        {
          "internalType": "address",
          "name": "",
          "type": "address"
        }
      ],
      "stateMutability": "view",
      "type": "function"
    },
    {
      "inputs": [
        {
          "internalType": "address",
          "name": "",
          "type": "address"
        },
        {
          "internalType": "address",
          "name": "",
          "type": "address"
        },
        {
          "internalType": "uint256",
          "name": "",
          "type": "uint256"
        }
      ],
      "name": "pools",
      "outputs": [
        {
          "internalType": "address",
          "name": "",
          "type": "address"
        }
      ],
      "stateMutability": "view",
      "type": "function"
    },
    {
      "inputs": [
        {
          "internalType": "address",
          "name": "token0",
          "type": "address"
        },
        {
          "internalType": "address",
          "name": "token1",
          "type": "address"
        }
      ],
      "name": "poolsCount",
      "outputs": [
        {
          "internalType": "uint256",
          "name": "count",
          "type": "uint256"
        }
      ],
      "stateMutability": "view",
      "type": "function"
    }
  ],
  "bytecode": {
    "object": "0x60a03461007757601f6147b538819003918201601f19168301916001600160401b0383118484101761007c5780849260209460405283398101031261007757516001600160a01b03811681036100775761005890610092565b6040516146fc90816100b982396080518181816104bc01526107d90152f35b600080fd5b634e487b7160e01b600052604160045260246000fd5b6001600160a01b038116156100a657608052565b60405163d92e233d60e01b8152600490fdfe6080604052600436101562000014575b600080fd5b6000803560e01c908163169c4cef146200009f5750806327c3cae114620000945780635bc93d6c146200008957806371a25812146200007e578063cf58879a14620000735763f6ab6d99146200006957600080fd5b6200000f620004e0565b506200000f62000499565b506200000f62000367565b506200000f620002b4565b506200000f620001ff565b346200014a5760606003193601126200014a5760043590620000c1826200014d565b60243590620000d0826200014d565b62000105604435926001600160a01b0380951683528260205260408320906001600160a01b0316600052602052604060002090565b9081548310156200014a57506200014691620001219162000176565b9190549260405193849360031b1c16829190916001600160a01b036020820193169052565b0390f35b80fd5b6001600160a01b038116036200000f57565b50634e487b7160e01b600052603260045260246000fd5b805482101562000190575b60005260206000200190600090565b6200019a6200015f565b62000181565b50634e487b7160e01b600052604160045260246000fd5b67ffffffffffffffff8111620001cc57604052565b620001d6620001a0565b604052565b90601f601f19910116810190811067ffffffffffffffff821117620001cc57604052565b50346200000f5760206003193601126200000f5767ffffffffffffffff6004358181116200000f57366023820112156200000f578060040135918211620002a4575b6040516200025a6020601f19601f8601160182620001db565b82815236602484840101116200000f576000602084620001469560246200028a96018386013783010152620006f3565b6040516001600160a01b0390911681529081906020820190565b620002ae620001a0565b62000241565b50346200000f5760406003193601126200000f57602062000318600435620002dc816200014d565b6001600160a01b0360243591620002f3836200014d565b16600052600083526040600020906001600160a01b0316600052602052604060002090565b54604051908152f35b6020908160408183019282815285518094520193019160005b82811062000349575050505090565b83516001600160a01b0316855293810193928101926001016200033a565b50346200000f5760806003193601126200000f5760043562000389816200014d565b6024359062000398826200014d565b60643590604435620003aa83620005ee565b936000806001600160a01b03809516905b868110620003d35760405180620001468a8262000321565b600190828452836020526200043d876200041b620004078860408920906001600160a01b0316600052602052604060002090565b84198a116200047d575b848a019062000176565b90549060031b1c166200042f838c62000654565b906001600160a01b03169052565b7fffffffffffffffffffffffffffffffffffffffffffffffffffffffffffffffff81146200046d575b01620003bb565b62000477620008db565b62000466565b62000487620008db565b62000411565b60009103126200000f57565b50346200000f5760006003193601126200000f5760206040516001600160a01b037f0000000000000000000000000000000000000000000000000000000000000000168152f35b50346200000f5760206003193601126200000f57600435600052600160205260206001600160a01b0360406000205416604051908152f35b519062ffffff821682036200000f57565b908160a09103126200000f57805162000542816200014d565b91602082015162000553816200014d565b91620005626040820162000518565b91620005816080606084015162000579816200014d565b930162000518565b90565b60209067ffffffffffffffff81116200059f575b60051b0190565b620005a9620001a0565b62000598565b604051906060820182811067ffffffffffffffff821117620005de575b60405260028252604082602036910137565b620005e8620001a0565b620005cc565b90620005fa8262000584565b620006096040519182620001db565b828152601f196200061b829462000584565b0190602036910137565b60209080511562000634570190565b6200063e6200015f565b0190565b60409080516001101562000634570190565b60209181518110156200066a575b60051b010190565b620006746200015f565b62000662565b90929192604082528051908160408401526000905b828210620006cd57506060601f19601f846020956001600160a01b039511620006bf575b01168401019416910152565b6000848289010152620006b3565b908060208092840101516060828701015201906200068f565b506040513d6000823e3d90fd5b62000708906020808251830101910162000529565b9094936001600160a01b0393841692908416838111620008b15762000779936200042f620007a892620007886200080096604051988991602083019887868b929093606092959460808501966001600160a01b03809216865216602085015262ffffff809216604085015216910152565b03601f198101895288620001db565b620007a262000796620005af565b916200042f8362000625565b62000642565b8251902091604051918291613dd4908184019184831067ffffffffffffffff841117620008a1575b620008f38539867f000000000000000000000000000000000000000000000000000000000000000016916200067a565b03906000f5801562000891575b1691823b156200000f576040517fd90bda4e0000000000000000000000000000000000000000000000000000000081526001600160a01b0391909116600482015260008160248183875af1801562000881575b620008685750565b80620008786200087f92620001b7565b806200048d565b565b6200088b620006e6565b62000860565b6200089b620006e6565b6200080d565b620008ab620001a0565b620007d0565b60046040517f30082a16000000000000000000000000000000000000000000000000000000008152fd5b50634e487b7160e01b600052601160045260246000fdfe6101608060405234620001e15762003dd480380380916200002182856200020d565b8339810190604081830312620001e15780516001600160401b039190828111620001e15781019183601f84011215620001e1578251908111620001e6575b604051926020946200007b86601f19601f86011601866200020d565b828552858383010111620001e1576000905b828210620001cb5750918185620000bb9693620000b49511620001bc575b50500162000272565b90620003d2565b6040516136ef9081620006e58239608051818181610ca701528181611dbc015261242b015260a051818181610cce0152611d42015260c051818181610c7e0152612847015260e051818181610cfe01528181610ea80152610fe50152610100518181816107340152610d260152610120518181816105f801528181610d4e0152818161102e01528181611553015281816118c801528181611b8d015281816120bb0152818161216001528181612536015261299b01526101405181818161062601528181610d7501528181610ef4015281816115790152818161181c01528181612067015281816121b40152818161232d015281816125c401526129fa0152f35b600091860101523882620000ab565b818101860151858301870152908501906200008d565b600080fd5b620001f0620001f6565b6200005f565b50634e487b7160e01b600052604160045260246000fd5b601f909101601f19168101906001600160401b038211908210176200023157604052565b6200023b620001f6565b604052565b6040519060c082016001600160401b038111838210176200023157604052565b6001600160a01b03811603620001e157565b51906200027f8262000260565b565b519062ffffff82168203620001e157565b9190826080910312620001e1578151620002ac8162000260565b916020810151620002bd8162000260565b91620002da6060620002d26040850162000281565b930162000281565b90565b90816020910312620001e15751620002da8162000260565b506040513d6000823e3d90fd5b90816020910312620001e1575190565b90816020910312620001e157516001600160801b0381168103620001e15790565b8151815460208401516040850151600160301b600160b01b0360309190911b1660189190911b65ffffff0000001662ffffff9093166001600160b01b031990921691909117919091171781556200027f91600390620003b19060a090606081015160018601556080810151600286015501516001600160a01b031690565b910180546001600160a01b0319166001600160a01b03909216919091179055565b620003e860209182808251830101910162000292565b6001600160a01b03928316959383169390918415620006d257308514620006c057308714620006c057620186a062ffffff821611620006ae5760048680956200049c93620005a09a620004c599610120526101405260a052856080528416604051630605066960e11b815282818581855afa9081156200069e575b6000916200066a575b5060e0526040516360a56c0160e11b815292839182905afa9081156200065a575b60009162000626575b50600455565b61010052604051636e23d2e160e11b815262ffffff909116600482015291829081906024820190565b038173__$f77c7d4f7bebf2e542ed21cd8d8dffcd75$__5af490811562000616575b600091620005e2575b5060c0526200054c6200050262000240565b620d89e7198152620d89e881840152600060408201526000606082015260006080820152600060a082015262000546620d89e7196000526009602052604060002090565b62000333565b6200056c6200055a62000240565b620d89e7198152918201620d89e89052565b600060408201526000606082015260006080820152600060a082015262000546620d89e86000526009602052604060002090565b6007805462ffffff60a01b1916621e4ec360a31b179055620005c26001600855565b6001805463ffffffff60a01b19164260a01b63ffffffff60a01b16179055565b620006079150823d84116200060e575b620005fe81836200020d565b81019062000312565b38620004f0565b503d620005f2565b62000620620002f5565b620004e7565b6200064b9150853d871162000652575b6200064281836200020d565b81019062000302565b3862000496565b503d62000636565b62000664620002f5565b6200048d565b6200068f9150833d851162000696575b6200068681836200020d565b810190620002dd565b386200046c565b503d6200067a565b620006a8620002f5565b62000463565b60405163da7459b760e01b8152600490fd5b60405163c1ab6dc160e01b8152600490fd5b60405163d92e233d60e01b8152600490fdfe60806040526004361015610013575b600080fd5b60003560e01c80630902f1ac146101a35780631a6865021461019a5780634d7b7ed114610191578063600b5b5814610188578063627dd56a1461017f57806367e4ac2c146101765780636d59d8021461016d5780638c347f9b1461016457806392bc32191461015b5780639da1209614610152578063a34123a714610149578063aaca1b4d14610140578063acfe88f814610137578063bcdb4dad1461012e578063c14ad80214610125578063caa4b46a1461011c578063cf78756b14610113578063d90bda4e1461010a578063f30dba93146101015763fb5d80b3146100f957600080fd5b61000e6111dd565b5061000e611158565b5061000e6110a9565b5061000e61108a565b5061000e610dbb565b5061000e610d9c565b5061000e610c5d565b5061000e610c33565b5061000e610b91565b5061000e6107c6565b5061000e6107a7565b5061000e6106ec565b5061000e6106b9565b5061000e610683565b5061000e6105b5565b5061000e610528565b5061000e61040b565b5061000e61034a565b5061000e6101ee565b5061000e6101b7565b600091031261000e57565b503461000e57600060031936011261000e57600654604080516001600160801b038316815260809290921c602083015290f35b0390f35b503461000e57600060031936011261000e5760206001600160801b0360005416604051908152f35b50634e487b7160e01b600052604160045260246000fd5b60e0810190811067ffffffffffffffff82111761024957604052565b610251610216565b604052565b67ffffffffffffffff811161024957604052565b6060810190811067ffffffffffffffff82111761024957604052565b90601f601f19910116810190811067ffffffffffffffff82111761024957604052565b60405190610120820182811067ffffffffffffffff82111761024957604052565b8060020b0361000e57565b604435906102e2826102ca565b565b606435906102e2826102ca565b608435906001600160801b038216820361000e57565b60a435906001600160801b038216820361000e57565b604435906001600160801b038216820361000e57565b8015150361000e57565b60c435906102e282610333565b503461000e5760e060031936011261000e576101ea6103d360405161036e8161022d565b60043561037a816102ca565b8152602435610388816102ca565b60208201526103956102d5565b60408201526103a26102e4565b60608201526103af6102f1565b60808201526103bc610307565b60a08201526103c961033d565b60c0820152611210565b6040519081529081906020820190565b600319604091011261000e576004356103fb816102ca565b90602435610408816102ca565b90565b503461000e5761041a366103e3565b6002600854146104fe57610433916002600855336126c3565b906104a561047b6006546001600160801b03906fffffffffffffffffffffffffffffffff1982610467818816828516611a4e565b16911617908160065585169060801c611a4e565b6001600160801b036fffffffffffffffffffffffffffffffff196006549260801b16911617600655565b6104b082823361295d565b604080518281526020810184905233917f4a1c185b7b5da020829d63d69222d8602aa53a6b7800a73ee6e3e15a625d863d91a26104ed6001600855565b604080519182526020820192909252f35b60046040517f0f2e5b6c000000000000000000000000000000000000000000000000000000008152fd5b503461000e57602060031936011261000e5767ffffffffffffffff60043581811161000e573660238201121561000e5780600401359182116105a8575b60405161057c6020601f19601f8601160182610286565b828152366024848401011161000e5760006020846101ea9560246103d396018386013783010152611b58565b6105b0610216565b610565565b503461000e57600060031936011261000e576040516105d38161026a565b6002815260209081810160403682376105eb82612b50565b926001600160a01b0393847f000000000000000000000000000000000000000000000000000000000000000016905261062383612b73565b847f000000000000000000000000000000000000000000000000000000000000000016905260405192818401908285525180915260408401929160005b82811061066d5785850386f35b8351871685529381019392810192600101610660565b503461000e57600060031936011261000e57604060015463ffffffff8251916001600160a01b038116835260a01c166020820152f35b503461000e57600060031936011261000e5760406007548151906001600160a01b038116825260a01c60020b6020820152f35b503461000e57600060031936011261000e576040517fc14ad8020000000000000000000000000000000000000000000000000000000081526020816004816001600160a01b037f0000000000000000000000000000000000000000000000000000000000000000165afa90811561079a575b60009161076c575b50600455005b61078d915060203d8111610793575b6107858183610286565b810190611972565b38610766565b503d61077b565b6107a2611981565b61075e565b503461000e57600060031936011261000e576020600254604051908152f35b503461000e57606060031936011261000e576004356107e4816102ca565b602435906107f1826102ca565b6107f961031d565b6002600854146104fe57600260085561081182613077565b9061081b84613077565b9361082e6007546001600160a01b031690565b936108586108536108476000546001600160801b031690565b6001600160801b031690565b611aba565b6001600160a01b038080961694168481111580610b75575b610b25575b6108926001600160801b039788968793848816998a931690612bf4565b979097169616946f7fffffffffffffffffffffffffffffff8111610afb578190600f0b6108be906119f7565b8333926108ca93612754565b93909283870192858901968085166006546108eb906001600160801b031690565b036001600160801b031661091e906001600160801b03166fffffffffffffffffffffffffffffffff196006541617600655565b871660065461092d9060801c90565b036001600160801b0316610965906001600160801b036fffffffffffffffffffffffffffffffff196006549260801b16911617600655565b61097087853361295d565b6007546040517f7a1d534300000000000000000000000000000000000000000000000000000000815260096004820152600292830b602482015292820b60448401526001600160801b0393909316606483015260a09290921c90910b608482015273__$f77c7d4f7bebf2e542ed21cd8d8dffcd75$__8160a4815a93602094f46101ea957f49995e5dd6158cf69ad3e9777c46755a1a826a446c6416992167462dad033b2a92610a9092610a77918115610aee575b600091610ac0575b507fffffffffffffffffff000000ffffffffffffffffffffffffffffffffffffffff6007549160a01b76ffffff000000000000000000000000000000000000000016911617600755565b6040805194855260208501919091523393918291820190565b0390a2610a9d6001600855565b604051948594859094939260609260808301968352602083015260408201520152565b610ae1915060203d8111610ae7575b610ad98183610286565b8101906119a3565b38610a2d565b503d610acf565b610af6611981565b610a25565b60046040517f35278d12000000000000000000000000000000000000000000000000000000008152fd5b610b70610b4b85610b3e6000546001600160801b031690565b036001600160801b031690565b6001600160801b03166fffffffffffffffffffffffffffffffff196000541617600055565b610875565b508587168510610870565b6001600160a01b0381160361000e57565b503461000e57606060031936011261000e576060610c0a600435610bb481610b80565b610bf8602435610bc3816102ca565b6001600160a01b0360443593610bd8856102ca565b16600052600a60205260406000209060020b600052602052604060002090565b9060020b600052602052604060002090565b6001600160801b0381541690600260018201549101549060405192835260208301526040820152f35b503461000e57610c4b610c45366103e3565b90612a7b565b60408051928352602083019190915290f35b503461000e57600060031936011261000e5760e06040516001600160801b037f000000000000000000000000000000000000000000000000000000000000000016815262ffffff807f00000000000000000000000000000000000000000000000000000000000000001660208301527f00000000000000000000000000000000000000000000000000000000000000001660408201526001600160a01b03807f0000000000000000000000000000000000000000000000000000000000000000166060830152807f0000000000000000000000000000000000000000000000000000000000000000166080830152807f00000000000000000000000000000000000000000000000000000000000000001660a08301527f00000000000000000000000000000000000000000000000000000000000000001660c0820152f35b503461000e57600060031936011261000e576020600454604051908152f35b503461000e57600080600319360112611087576002600854146104fe5760026008558081610df16005546001600160801b031690565b6001600160801b0390600182821611610f63575b506001610e1460055460801c90565b91821611610e46575b5050610e296001600855565b604080516001600160801b03928316815292909116602083015290f35b610e51919350611a35565b91610e797001000000000000000000000000000000006001600160801b036005541617600555565b610e9161047b84610e8c60065460801c90565b611a4e565b60405163a9059cbb60e01b81526001600160a01b037f00000000000000000000000000000000000000000000000000000000000000001660048201526001600160801b038416602482015290602090829081806044810103916001600160a01b037f0000000000000000000000000000000000000000000000000000000000000000165af18015610f56575b610f28575b80610e1d565b610f489060203d8111610f4f575b610f408183610286565b81019061198e565b5038610f22565b503d610f36565b610f5e611981565b610f1d565b610f6e919350611a35565b91610f9060016fffffffffffffffffffffffffffffffff196005541617600555565b610fce610fa984610e8c6006546001600160801b031690565b6001600160801b03166fffffffffffffffffffffffffffffffff196006541617600655565b60405163a9059cbb60e01b81526001600160a01b037f00000000000000000000000000000000000000000000000000000000000000001660048201526001600160801b038416602482015260208180604481010381866001600160a01b037f0000000000000000000000000000000000000000000000000000000000000000165af1801561107a575b15610e05576110739060203d8111610f4f57610f408183610286565b5038610e05565b611082611981565b611057565b80fd5b503461000e57600060031936011261000e576020600354604051908152f35b503461000e57602060031936011261000e576004356110c781610b80565b600754906001600160a01b0390818316156110de57005b16906401000276a38210801561113a575b6111105773ffffffffffffffffffffffffffffffffffffffff191617600755005b60046040517f6e4ba61d000000000000000000000000000000000000000000000000000000008152fd5b5073fffd8963efd1fc6a506488495d951d5263988d268210156110ef565b503461000e57602060031936011261000e57600435611176816102ca565b60020b600052600960205260c060406000208054906001810154906001600160a01b036003600283015492015416916001600160801b03604051948060020b86528060181c60020b602087015260301c1660408501526060840152608083015260a0820152f35b503461000e57600060031936011261000e57600554604080516001600160801b038316815260809290921c602083015290f35b6002600854146104fe57611315906002600855611242611234602083015160020b90565b606083015160020b90612425565b61126761125b611256602084015160020b90565b613077565b6001600160a01b031690565b61127b61125b611256606085015160020b90565b9061129161125b6007546001600160a01b031690565b60206112aa61084760a08701516001600160801b031690565b6112c161084760808801516001600160801b031690565b6040517faec6cbfe00000000000000000000000000000000000000000000000000000000815260048101869052602481018790526044810185905260648101929092526084820152958690819060a4820190565b038173__$a0faf068f3fffb2811252165527ae33188$__5af4948515611965575b600095611944575b506f7fffffffffffffffffffffffffffffff8511610afb5761154f9285926113746108536108476000546001600160801b031690565b6113a1611385602088015160020b90565b606088015160020b6001600160801b038716600f0b9133612754565b9080611892575b50806117e6575b5082811115806117dd575b6117a9575b61154a6001600160a01b036020857f28c11771000000000000000000000000000000000000000000000000000000006114d8898c6002546003549161140c6001546001600160a01b031690565b90611418815160020b90565b818a015160020b9061143c6060611433604086015160020b90565b94015160020b90565b9361144c60075460a01c60020b90565b966001600160801b036040519e8f9d8e9d8e521699169660048c0198946001600160801b0394610140999498939c9b97929c6101608c019d60098d5260208d015260408c01526001600160a01b0380991660608c015260020b60808b015260020b60a08a015260020b60c089015260020b60e08801521661010086015260020b61012085015216910152565b038173__$f77c7d4f7bebf2e542ed21cd8d8dffcd75$__5af490811561179c575b60009161178357507fffffffffffffffffff000000ffffffffffffffffffffffffffffffffffffffff6007549160a01b76ffffff000000000000000000000000000000000000000016911617600755565b612c5c565b90917f00000000000000000000000000000000000000000000000000000000000000006115a060c07f0000000000000000000000000000000000000000000000000000000000000000930151151590565b333b1561000e576040517fa7c1d4480000000000000000000000000000000000000000000000000000000081526001600160a01b038381166004830152841660248201526001600160801b03868116604483015285166064820152901515608482015260008160a48183335af18015611776575b61175d575b506001600160801b0384166116f0575b506001600160801b038216611684575b50604080516001600160801b03938416815291909216602082015233917f4c209b5fc8ad50758f13e2e1088ba56a560dff690a1c6fef26394f4c03821c4f91a2906102e26001600855565b61169c61047b8361169760065460801c90565b6119cf565b6001600160801b036116b96116b360065460801c90565b926128e5565b9116116116c65738611639565b60046040517fe4302042000000000000000000000000000000000000000000000000000000008152fd5b611709610fa9856116976006546001600160801b031690565b6001600160801b036117266116b36006546001600160801b031690565b9116116117335738611629565b60046040517f840463aa000000000000000000000000000000000000000000000000000000008152fd5b8061176a61177092610256565b806101ac565b38611619565b61177e611981565b611614565b610ae1915060203d602011610ae757610ad98183610286565b6117a4611981565b6114f9565b6117d8610b4b6001600160801b0386166117cb6000546001600160801b031690565b016001600160801b031690565b6113bf565b508183106113ba565b60405163a9059cbb60e01b8152336004820152602481018290526118609161047b916001600160801b03919060208160448160007f00000000000000000000000000000000000000000000000000000000000000006001600160a01b03165af18015611885575b611866575b5016610b3e60065460801c90565b386113af565b61187e9060203d602011610f4f57610f408183610286565b5038611852565b61188d611981565b61184d565b60405163a9059cbb60e01b81523360048201526024810182905261191291610fa9916001600160801b03919060208160448160007f00000000000000000000000000000000000000000000000000000000000000006001600160a01b03165af18015611937575b611918575b5016610b3e6006546001600160801b031690565b386113a8565b6119309060203d602011610f4f57610f408183610286565b50386118fe565b61193f611981565b6118f9565b61195e91955060203d602011610793576107858183610286565b933861133e565b61196d611981565b611336565b9081602091031261000e575190565b506040513d6000823e3d90fd5b9081602091031261000e575161040881610333565b9081602091031261000e5751610408816102ca565b50634e487b7160e01b600052601160045260246000fd5b906001600160801b0380809316911680920381116119eb570190565b6119f36119b8565b0190565b600f0b7fffffffffffffffffffffffffffffffff800000000000000000000000000000008114611a28575b60000390565b611a306119b8565b611a22565b6001600160801b036000199116600181106119eb570190565b6001600160801b039182169116818110611a66570390565b611a6e6119b8565b0390565b50634e487b7160e01b600052601260045260246000fd5b8015611a97575b6000190490565b611a9f611a72565b611a90565b8115611aae570490565b611ab6611a72565b0490565b6001549063ffffffff8260a01c168042141580611b4f575b611adb57505050565b8115611b42575b6001600160a01b03918291420360801b04168183160116907fffffffffffffffff00000000000000000000000000000000000000000000000077ffffffff00000000000000000000000000000000000000004260a01b1691161717600155565b611b4a611a72565b611ae2565b50811515611ad2565b906002600854146104fe576002600855611b7d60009260208082518301019101612351565b9091821561232557611bd8611bb17f00000000000000000000000000000000000000000000000000000000000000006128e5565b841561230c576001600160801b03611bd16006546001600160801b031690565b1690612376565b91831561230357600354925b84156122f857611c606002545b6007546001600160a01b03611c106108478b546001600160801b031690565b9189156122c8578060a01c60020b935b611c286102a9565b998c8b528c60208c01528c60408c015260608b015260808a01521660a088015260c08701528260e087015261010086019060020b9052565b611c6d60c0850151611aba565b60e084015115611f9557611c8c61125b61125661010087015160020b90565b6000968615611ef357611ca960c08701518360a089015191612bc4565b60e087015190808211611eba5750508691611d6791611ccc60c089015160601b90565b611cf260a08a0151611ceb611ce560e08d01518361238d565b84612381565b9083612f2f565b8093111580611ead575b15611e72575b50611d1760c08901518360a08b015191612b83565b9160a0890152600060e08901525b6004549060c089015160208a01519060408b01519360608c0151957f000000000000000000000000000000000000000000000000000000000000000090612f7e565b929991908360608a01526040890152986020880152611d88575b5050611c6d565b61010086015160020b90611def611de360019385611dad86546001600160a01b031690565b9460c08c01519060808d0151917f000000000000000000000000000000000000000000000000000000000000000097889561345a565b60020b6101008a015290565b8060c089015215611e01575b50611d81565b611e6592611e5992611e1e61125b6112566101008c015160020b90565b60a08a0152611e43611e356101008b015160020b90565b91546001600160a01b031690565b60c08a015160608b01519160808c01519361345a565b60020b61010087015290565b60c0850152843880611dfb565b611ea691925061125b61125b91611e9b611e9060a08d015183611aa4565b60e08d015190612381565b808206151591040190565b9038611d02565b5060a08901518310611cfc565b889391995091611ee9611d6793611edb60c08b01518560a08d015191612b83565b9360a08b015260019b612376565b60e0890152611d25565b9060c08601519060a0870151611f0b81830384612da7565b928360e08a01511115600014611f6c5750505050611d678691611f4560a0880151611f3f60e08a015160c08b015190612cbe565b90612381565b90611f5a8260c08a015160a08b015190612bc4565b9160a0890152600060e0890152611d25565b611d67939a50828a9592611f7f92612bc4565b9160a0890152611ee960019a60e08a0151612376565b919493909261203a90611fde611fb560a08301516001600160a01b031690565b6001600160a01b031673ffffffffffffffffffffffffffffffffffffffff196007541617600755565b82156122945761010081015160020b5b60075460a01c60020b8160020b9060020b0361222a575b5061201a866001600160801b03861685612529565b612033604060608301519201516001600160801b031690565b908361264f565b156121385760405163a9059cbb60e01b81526001600160a01b0392831660048201819052602482018590527f000000000000000000000000000000000000000000000000000000000000000090931692906020816044816000885af1801561212b575b61210c575b5060408051928352602083018590526001600160a01b037f000000000000000000000000000000000000000000000000000000000000000016927fcd3829a3813dc3cdd188fd3d01dcf3268c16be2fdd2dd21d0665418816e460629190a45b906102e26001600855565b6121249060203d602011610f4f57610f408183610286565b50386120a2565b612133611981565b61209d565b60405163a9059cbb60e01b81526001600160a01b0392831660048201819052602482018590527f000000000000000000000000000000000000000000000000000000000000000090931692906020816044816000885af1801561221d575b6121fe575b5060408051928352602083018590526001600160a01b037f000000000000000000000000000000000000000000000000000000000000000016927fcd3829a3813dc3cdd188fd3d01dcf3268c16be2fdd2dd21d0665418816e460629190a4612101565b6122169060203d602011610f4f57610f408183610286565b503861219b565b612225611981565b612196565b612277907fffffffffffffffffff000000ffffffffffffffffffffffffffffffffffffffff6007549160a01b76ffffff000000000000000000000000000000000000000016911617600755565b61228e610b4b60c08301516001600160801b031690565b38612005565b6122c36122bc6122a961010084015160020b90565b60020b6000526009602052604060002090565b5460020b90565b611fee565b6122f26122e88260a01c60020b60020b6000526009602052604060002090565b5460181c60020b90565b93611c20565b611c60600354611bf1565b60025492611be4565b6001600160801b0361232060065460801c90565b611bd1565b611bd8611bb17f00000000000000000000000000000000000000000000000000000000000000006128e5565b919082604091031261000e576020825161236a81610333565b92015161040881610b80565b818110611a66570390565b811981116119eb570190565b80600019048211811515166123a0570290565b6123a86119b8565b0290565b9060020b9081156123bf575b60020b0790565b6123c7611a72565b6123b8565b60020b9060020b908115612418575b60001982147fffffffffffffffffffffffffffffffffffffffffffffffffffffffffff80000082141661240c570590565b6124146119b8565b0590565b612420611a72565b6123db565b62ffffff7f00000000000000000000000000000000000000000000000000000000000000001660020b9061245982826123ac565b60020b6124d5576124796124708361247f936123cc565b600290810b0790565b60020b90565b6124ff5761249061247982846123ac565b6124d557612470612479916124a4936123cc565b156124ab57565b60046040517fa9778c63000000000000000000000000000000000000000000000000000000008152fd5b60046040517fce8ef7fc000000000000000000000000000000000000000000000000000000008152fd5b60046040517ffdf14202000000000000000000000000000000000000000000000000000000008152fd5b156125bc5761256d61255a7f00000000000000000000000000000000000000000000000000000000000000006128e5565b916116976006546001600160801b031690565b906001600160801b039081831611611733576102e2926125af61047b936001600160801b03166fffffffffffffffffffffffffffffffff196006541617600655565b16610b3e60065460801c90565b6125f56125e87f00000000000000000000000000000000000000000000000000000000000000006128e5565b9161169760065460801c90565b906001600160801b0390818316116116c6576102e29261263c610fa9936001600160801b036fffffffffffffffffffffffffffffffff196006549260801b16911617600655565b16610b3e6006546001600160801b031690565b1561268d576003556001600160801b036fffffffffffffffffffffffffffffffff19612681600554938460801c6119cf565b60801b16911617600555565b6002556fffffffffffffffffffffffffffffffff19600554916126ba6001600160801b03918285166119cf565b16911617600555565b916126ee81610bf884610bf86126f49698976001600160a01b0316600052600a602052604060002090565b93612a7b565b600184018054909392818110612747575b61273560026127216001600160801b0389541680958503612d55565b970192835480861061273a575b8503612d55565b945555565b6127426119b8565b61272e565b61274f6119b8565b612705565b9161277f81610bf884610bf86127859699976001600160a01b0316600052600a602052604060002090565b94612a7b565b906001850190612796825482612376565b916127a887546001600160801b031690565b956001600160801b03906127bf8289168096612d55565b9860006127da60028301976127d589548b612376565b612d55565b9983600f0b908282126128a1575b50136127f6575b5050505555565b61283861281361284593851661169784546001600160801b031690565b82906001600160801b03166fffffffffffffffffffffffffffffffff19825416179055565b546001600160801b031690565b7f00000000000000000000000000000000000000000000000000000000000000008216911611612877573880806127ef565b60046040517fb03425ae000000000000000000000000000000000000000000000000000000008152fd5b6128ba6128df916128b4610847886119f7565b90611a4e565b84906001600160801b03166fffffffffffffffffffffffffffffffff19825416179055565b386127e8565b60206001600160a01b03916024604051809481937f70a08231000000000000000000000000000000000000000000000000000000008352306004840152165afa908115612950575b600091612938575090565b610408915060203d8111610793576107858183610286565b612958611981565b61292d565b60405163a9059cbb60e01b8082526001600160a01b03838116600484015260248301949094526020946129f6948694919390926000918681604481867f00000000000000000000000000000000000000000000000000000000000000008a165af18015612a6e575b612a51575b5060405196879586948593845260048401602090939291936001600160a01b0360408201951681520152565b03927f0000000000000000000000000000000000000000000000000000000000000000165af18015612a44575b612a2b575050565b81612a4192903d10610f4f57610f408183610286565b50565b612a4c611981565b612a23565b612a6790873d8911610f4f57610f408183610286565b50386129ca565b612a76611981565b6129c5565b61040890929192612b03612a9460075460a01c60020b90565b94612b08612aaf8460020b6000526009602052604060002090565b612b03612ac98460020b6000526009602052604060002090565b9160028054976003549b820b8091830b1315600014612b2f57816001840154930154965b820b1315612b0e57600184015493015496612376565b612376565b95612376565b612b2990612b2060018601548a612376565b9401548b612376565b96612376565b612b4a82612b4160018601548c612376565b9401548d612376565b96612aed565b805115612b5d5760200190565b634e487b7160e01b600052603260045260246000fd5b805160011015612b5d5760400190565b90610408920390612da7565b91906c010000000000000000000000009103612bab8184612da7565b9209612bb45790565b60001981101561000e5760010190565b91611aa491928382039060601b612f04565b91612be891928382039060601b612f2f565b90808206151591040190565b60009493929091908590808311612c1c57505091612c1791610408930390612da7565b612f6a565b94955093909290828111612c3c575091612c1791612c3993612bc4565b91565b949350612c1791612c54612c17610408958885612bc4565b950390612da7565b6000949391929091908590808511612c7e57505091612c179161040893612b8f565b94955093828111612c98575091612c1791612c3993612bd6565b90949350612c1791612cb1612c17610408958489612bd6565b95612b8f565b1561000e57565b6c0100000000000000000000000091600019838309928260601b92838086109503948086039514612d4657908291612cf7868411612cb7565b0981806000031680920460028082600302188083028203028083028203028083028203028083028203028083028203028092029003029360018380600003040190848311900302920304170290565b50509150611ab6821515612cb7565b6000198282099082810292838084109303928084039314612d9e57700100000000000000000000000000000000918383111561000e570990828211900360801b910360801c1790565b50505060801c90565b6000198282099082810292838084109303928084039314612dec576c01000000000000000000000000918383111561000e570990828211900360a01b910360601c1790565b50505060601c90565b70010000000000000000000000000000000091600019838309928260801b92838086109503948086039514612d4657908291612cf7868411612cb7565b9060001981830981830291828083109203918083039214612e9057620f4240908282111561000e577fde8f6cefed634549b62c77574f722e1ac57e23f24d8fd5cb790fb65668c26139940990828211900360fa1b910360061c170290565b5050620f424091500490565b9060001981830981830291828083109203918083039214612ef957612710908282111561000e577fbc01a36e2eb1c432ca57a786c226809d495182a9930be0ded288ce703afb7e91940990828211900360fc1b910360041c170290565b505061271091500490565b90916000198383099280830292838086109503948086039514612d4657908291612cf7868411612cb7565b929190612f3d828286612f04565b938215612f5d575b09612f4c57565b9060001981101561000e5760010190565b612f65611a72565b612f45565b906001600160801b03821691820361000e57565b9597949062ffffff90979394971696620f4240612f9b8989612e32565b988809613032575b9087612fb281612fc294612381565b97818110613025575b0390612381565b96612710612fd08389612e9c565b92880961300d575b9281612fea611f3f93612ff996612381565b97818110613000575b03612df5565b9193929190565b6130086119b8565b612ff3565b9260001982101561000e579260019190910190612fd8565b61302d6119b8565b612fbb565b969060001982101561000e5760019190910196612fa3565b7f80000000000000000000000000000000000000000000000000000000000000008114611a285760000390565b60020b600081121561341c5761308c8161304a565b620d89e881116133f2576001600160a01b039160018216156133c95770ffffffffffffffffffffffffffffffffff6ffffcb933bd6fad37aa2d162d1a5940015b1691600281166133ad575b60048116613391575b60088116613375575b60108116613359575b6020811661333d575b60408116613321575b608090818116613306575b61010081166132eb575b61020081166132d0575b61040081166132b5575b610800811661329a575b611000811661327f575b6120008116613264575b6140008116613249575b618000811661322e575b620100008116613213575b6202000081166131f9575b6204000081166131df575b62080000166131c4575b506000126131b6575b63ffffffff81166131ad5760ff60005b169060201c011690565b60ff60016131a3565b6131bf90611a89565b613193565b6b048a170391f7dc42444e8fa26000929302901c919061318a565b6d2216e584f5fa1ea926041bedfe98909302811c92613180565b926e5d6af8dedb81196699c329225ee60402811c92613175565b926f09aa508b5b7a84e1c677de54f3e99bc902811c9261316a565b926f31be135f97d08fd981231505542fcfa602811c9261315f565b926f70d869a156d2a1b890bb3df62baf32f702811c92613155565b926fa9f746462d870fdf8a65dc1f90e061e502811c9261314b565b926fd097f3bdfd2022b8845ad8f792aa582502811c92613141565b926fe7159475a2c29b7443b29c7fa6e889d902811c92613137565b926ff3392b0822b70005940c7a398e4b70f302811c9261312d565b926ff987a7253ac413176f2b074cf7815e5402811c92613123565b926ffcbe86c7900a88aedcffc83b479aa3a402811c92613119565b926ffe5dee046a99a2a811c461f1969c305302811c9261310f565b916fff2ea16466c96a3843ec78b326b528610260801c91613104565b916fff973b41fa98c081472e6896dfb254c00260801c916130fb565b916fffcb9843d60f6159c9db58835c9266440260801c916130f2565b916fffe5caca7e10e4e61c3624eaa0941cd00260801c916130e9565b916ffff2e50f5f656932ef12357cf3c7fdcc0260801c916130e0565b916ffff97272373d413259a46990580e213a0260801c916130d7565b70ffffffffffffffffffffffffffffffffff7001000000000000000000000000000000006130cc565b60046040517ff87dc40c000000000000000000000000000000000000000000000000000000008152fd5b8061308c565b6001600160a01b039182169116818110611a66570390565b9060020b90811561344d575b60020b0590565b613455611a72565b613446565b94906134996134db9198979394959861349360036134858a60020b6000526009602052604060002090565b01546001600160a01b031690565b90613422565b60036134b28860020b6000526009602052604060002090565b01906001600160a01b031673ffffffffffffffffffffffffffffffffffffffff19825416179055565b156135e3576122bc9261355d610408959361350461247062ffffff613591961660020b8761343a565b60020b6135bf576135386108476135288760020b6000526009602052604060002090565b5460301c6001600160801b031690565b9003975b60016135558660020b6000526009602052604060002090565b015490612376565b60016135768560020b6000526009602052604060002090565b015560026135558460020b6000526009602052604060002090565b60026135aa8360020b6000526009602052604060002090565b015560020b6000526009602052604060002090565b6135dc6108476135288760020b6000526009602052604060002090565b019761353c565b6122e892613647610408959361360761247062ffffff61367b961660020b8761343a565b60020b6136945761362b6108476135288760020b6000526009602052604060002090565b01975b60026135558660020b6000526009602052604060002090565b60026136608560020b6000526009602052604060002090565b015560016135558460020b6000526009602052604060002090565b60016135aa8360020b6000526009602052604060002090565b6136b16108476135288760020b6000526009602052604060002090565b90039761362e56fea264697066735822122078186f392050369fd2e943fbeb806f969ae1e8b91526334720fbb463b1c8f41364736f6c634300080e0033a26469706673582212204bff36c7b68484fe5b67ff66dcf80eabe600e47b1f90f040699942adcbeb2af564736f6c634300080e0033",
    "linkReferences": {
      "src/libraries/DyDxMath.sol": {
        "DyDxMath": [
          {
            "start": 9130,
            "length": 20
          }
        ]
      },
      "src/libraries/Ticks.sol": {
        "Ticks": [
          {
            "start": 3701,
            "length": 20
          },
          {
            "start": 6756,
            "length": 20
          },
          {
            "start": 9581,
            "length": 20
          }
        ]
      }
    }
  },
  "methodIdentifiers": {
    "configAddress(bytes32)": "f6ab6d99",
    "deployPool(bytes)": "27c3cae1",
    "getPools(address,address,uint256,uint256)": "71a25812",
    "masterDeployer()": "cf58879a",
    "pools(address,address,uint256)": "169c4cef",
    "poolsCount(address,address)": "5bc93d6c"
  },
  "id": 1
}