{
  "abi": [
    {
      "inputs": [
        {
          "internalType": "contract IConcentratedLiquidityPool",
          "name": "pool",
          "type": "address"
        },
        {
          "internalType": "uint24",
          "name": "tickCount",
          "type": "uint24"
        }
      ],
      "name": "getTickState",
      "outputs": [
        {
          "components": [
            {
              "internalType": "int24",
              "name": "index",
              "type": "int24"
            },
            {
              "internalType": "uint128",
              "name": "liquidity",
              "type": "uint128"
            }
          ],
          "internalType": "struct ConcentratedLiquidityPoolHelper.SimpleTick[]",
          "name": "",
          "type": "tuple[]"
        }
      ],
      "stateMutability": "view",
      "type": "function"
    }
  ],
  "bytecode": {
    "object": "0x60808060405234610016576105e6908161001c8239f35b600080fdfe6040608081526004908136101561001557600080fd5b600090813560e01c63f01a1b681461002c57600080fd5b346102e157807ffffffffffffffffffffffffffffffffffffffffffffffffffffffffffffffffc3601126102e157823591610066836102e5565b6024359062ffffff918281168091036102e15761008290610411565b9361008b61048d565b50819573ffffffffffffffffffffffffffffffffffffffff7ffffffffffffffffffffffffffffffffffffffffffffffffffffffffffff276189216905b620d89e88360020b036101d95761019a979361012660c061018f9795610150958a9586518095819482937ff30dba930000000000000000000000000000000000000000000000000000000084528301919091602081019260020b9052565b03915afa9182156101cc575b9161019e575b5001516fffffffffffffffffffffffffffffffff1690565b9161017c61015c6103ca565b620d89e88152936fffffffffffffffffffffffffffffffff166020850152565b16906101888286610586565b5283610586565b505191829182610308565b0390f35b6101bf915060c03d81116101c5575b6101b781836103a7565b8101906104cd565b38610138565b503d6101ad565b6101d461054f565b610132565b916102b19086517ff30dba9300000000000000000000000000000000000000000000000000000000815260c09081818061021f868a8301919091602081019260020b9052565b0381885afa9182156102d4575b87926102b7575b50506102a8610254898301516fffffffffffffffffffffffffffffffff1690565b9261026a6102606103ca565b91829060020b9052565b61028a602094858301906fffffffffffffffffffffffffffffffff169052565b886102948d61055c565b9c16906102a1828d610586565b528a610586565b50015160020b90565b916100c8565b6102cd9250803d106101c5576101b781836103a7565b3880610233565b6102dc61054f565b61022c565b5080fd5b73ffffffffffffffffffffffffffffffffffffffff81160361030357565b600080fd5b60208082019080835283518092528060408094019401926000905b83821061033257505050505090565b8451805160020b87528301516fffffffffffffffffffffffffffffffff16868401529485019493820193600190910190610323565b50634e487b7160e01b600052604160045260246000fd5b60c0810190811067ffffffffffffffff82111761039a57604052565b6103a2610367565b604052565b90601f601f19910116810190811067ffffffffffffffff82111761039a57604052565b604051906040820182811067ffffffffffffffff82111761039a57604052565b60209067ffffffffffffffff8111610404575b60051b0190565b61040c610367565b6103fd565b9061041b826103ea565b6040610429815192836103a7565b838252601f1961043983956103ea565b0191600090815b84811061044e575050505050565b602090845185810181811067ffffffffffffffff821117610480575b8652848152828581830152828501015201610440565b610488610367565b61046a565b6040519061049a8261037e565b8160a06000918281528260208201528260408201528260608201528260808201520152565b51908160020b820361030357565b908160c091031261030357604051906104e58261037e565b6104ee816104bf565b82526104fc602082016104bf565b60208301526040810151906fffffffffffffffffffffffffffffffff821682036103035760a091604084015260608101516060840152608081015160808401520151610547816102e5565b60a082015290565b506040513d6000823e3d90fd5b62ffffff8091169081146105705760010190565b634e487b7160e01b600052601160045260246000fd5b805182101561059a5760209160051b010190565b634e487b7160e01b600052603260045260246000fdfea26469706673582212201f767fa4b7d1f997bb89c73b525780cbc623a5b251320e0103c81f0df0af9b1264736f6c634300080e0033",
    "linkReferences": {}
  },
  "methodIdentifiers": {
    "getTickState(address,uint24)": "f01a1b68"
  },
  "id": 2
}