{
  "abi": [
    {
      "inputs": [
        {
          "internalType": "uint256",
          "name": "_barFee",
          "type": "uint256"
        },
        {
          "internalType": "address",
          "name": "_barFeeTo",
          "type": "address"
        }
      ],
      "stateMutability": "nonpayable",
      "type": "constructor"
    },
    {
      "inputs": [],
      "name": "InvalidBarFee",
      "type": "error"
    },
    {
      "inputs": [],
      "name": "NotWhitelisted",
      "type": "error"
    },
    {
      "inputs": [],
      "name": "ZeroAddress",
      "type": "error"
    },
    {
      "anonymous": false,
      "inputs": [
        {
          "indexed": true,
          "internalType": "address",
          "name": "factory",
          "type": "address"
        }
      ],
      "name": "AddToWhitelist",
      "type": "event"
    },
    {
      "anonymous": false,
      "inputs": [
        {
          "indexed": true,
          "internalType": "address",
          "name": "barFeeTo",
          "type": "address"
        }
      ],
      "name": "BarFeeToUpdated",
      "type": "event"
    },
    {
      "anonymous": false,
      "inputs": [
        {
          "indexed": true,
          "internalType": "uint256",
          "name": "barFee",
          "type": "uint256"
        }
      ],
      "name": "BarFeeUpdated",
      "type": "event"
    },
    {
      "anonymous": false,
      "inputs": [
        {
          "indexed": true,
          "internalType": "address",
          "name": "factory",
          "type": "address"
        },
        {
          "indexed": true,
          "internalType": "address",
          "name": "pool",
          "type": "address"
        },
        {
          "indexed": false,
          "internalType": "bytes",
          "name": "deployData",
          "type": "bytes"
        }
      ],
      "name": "DeployPool",
      "type": "event"
    },
    {
      "anonymous": false,
      "inputs": [
        {
          "indexed": true,
          "internalType": "address",
          "name": "factory",
          "type": "address"
        }
      ],
      "name": "RemoveFromWhitelist",
      "type": "event"
    },
    {
      "inputs": [
        {
          "internalType": "address",
          "name": "_factory",
          "type": "address"
        }
      ],
      "name": "addToWhitelist",
      "outputs": [],
      "stateMutability": "nonpayable",
      "type": "function"
    },
    {
      "inputs": [],
      "name": "barFee",
      "outputs": [
        {
          "internalType": "uint256",
          "name": "",
          "type": "uint256"
        }
      ],
      "stateMutability": "view",
      "type": "function"
    },
    {
      "inputs": [],
      "name": "barFeeTo",
      "outputs": [
        {
          "internalType": "address",
          "name": "",
          "type": "address"
        }
      ],
      "stateMutability": "view",
      "type": "function"
    },
    {
      "inputs": [
        {
          "internalType": "address",
          "name": "_factory",
          "type": "address"
        },
        {
          "internalType": "bytes",
          "name": "_deployData",
          "type": "bytes"
        }
      ],
      "name": "deployPool",
      "outputs": [
        {
          "internalType": "address",
          "name": "pool",
          "type": "address"
        }
      ],
      "stateMutability": "nonpayable",
      "type": "function"
    },
    {
      "inputs": [
        {
          "internalType": "address",
          "name": "",
          "type": "address"
        }
      ],
      "name": "pools",
      "outputs": [
        {
          "internalType": "bool",
          "name": "",
          "type": "bool"
        }
      ],
      "stateMutability": "view",
      "type": "function"
    },
    {
      "inputs": [
        {
          "internalType": "address",
          "name": "_factory",
          "type": "address"
        }
      ],
      "name": "removeFromWhitelist",
      "outputs": [],
      "stateMutability": "nonpayable",
      "type": "function"
    },
    {
      "inputs": [
        {
          "internalType": "uint256",
          "name": "_barFee",
          "type": "uint256"
        }
      ],
      "name": "setBarFee",
      "outputs": [],
      "stateMutability": "nonpayable",
      "type": "function"
    },
    {
      "inputs": [
        {
          "internalType": "address",
          "name": "_barFeeTo",
          "type": "address"
        }
      ],
      "name": "setBarFeeTo",
      "outputs": [],
      "stateMutability": "nonpayable",
      "type": "function"
    },
    {
      "inputs": [
        {
          "internalType": "address",
          "name": "",
          "type": "address"
        }
      ],
      "name": "whitelistedFactories",
      "outputs": [
        {
          "internalType": "bool",
          "name": "",
          "type": "bool"
        }
      ],
      "stateMutability": "view",
      "type": "function"
    }
  ],
  "bytecode": {
    "object": "0x60803461006d57601f61070638819003918201601f19168301916001600160401b0383118484101761007257808492604094855283398101031261006d5780516020909101516001600160a01b038116810361006d5761005e91610088565b60405161062690816100e08239f35b600080fd5b634e487b7160e01b600052604160045260246000fd5b9061271082116100cd576001600160a01b03169081156100bb57600055600180546001600160a01b031916919091179055565b60405163d92e233d60e01b8152600490fd5b604051637c2d2d2b60e01b8152600490fdfe608080604052600436101561001357600080fd5b6000803560e01c91826306e22d12146100cc57505080630c0a0cd2146100c3578063250558dc146100ba5780633dad8acb146100b15780636f50f2f4146100a85780638ab1d6811461009f578063a4063dbc14610096578063c14ad8021461008d5763e43252d714610085575b600080fd5b61008061038b565b5061008061036c565b50610080610328565b506100806102c1565b5061008061027d565b50610080610200565b5061008061017d565b50610080610144565b34610140576020600319360112610140576004359061271082116101185750808255604051907f880a5214911723edb25bb08410581af1de2e40c52eda03920990c4bc27011fb68383a2f35b807f7c2d2d2b0000000000000000000000000000000000000000000000000000000060049252fd5b5080fd5b50346100805760006003193601126100805760206001600160a01b0360015416604051908152f35b6001600160a01b0381160361008057565b50346100805760406003193601126100805760043561019b8161016c565b60243567ffffffffffffffff8082116100805736602383011215610080578160040135908111610080573660248284010111610080576101fc9260246101e2930190610494565b6040516001600160a01b0390911681529081906020820190565b0390f35b50346100805760206003193601126100805760006001600160a01b036004356102288161016c565b16807fffffffffffffffffffffffff00000000000000000000000000000000000000006001541617600155604051907ff774513cf7e21ae3f5ec0ea74c68c431204fb5c1656e7050da0d81ccf9d083118383a2f35b5034610080576020600319360112610080576001600160a01b036004356102a38161016c565b166000526003602052602060ff604060002054166040519015158152f35b50346100805760206003193601126100805760006001600160a01b036004356102e98161016c565b1680825260036020526040822060ff198154169055604051907f1f756c8b089af6b33ee121fee8badac2553a2fa89c0575ea91ff8792617746c28383a2f35b5034610080576020600319360112610080576001600160a01b0360043561034e8161016c565b166000526002602052602060ff604060002054166040519015158152f35b5034610080576000600319360112610080576020600054604051908152f35b50346100805760206003193601126100805760006001600160a01b036004356103b38161016c565b16808252600360205260408220600160ff19825416179055604051907f75b2135d1c8c3519f3c09c43fe6527089ef09f40c7981ebf0ed46e79e79032c78383a2f35b90601f601f19910116810190811067ffffffffffffffff82111761041857604052565b7f4e487b7100000000000000000000000000000000000000000000000000000000600052604160045260246000fd5b90816020910312610080575161045c8161016c565b90565b90601f83604094601f1993602086528160208701528686013760008582860101520116010190565b506040513d6000823e3d90fd5b9291926104c56104c16104ba836001600160a01b03166000526003602052604060002090565b5460ff1690565b1590565b6105c6577fe469f9471ac1d98222517eb2cdff1ef4df5f7880269173bb782bb78e499d9de36001600160a01b03809216916040517f27c3cae10000000000000000000000000000000000000000000000000000000081526020818061052e8a896004840161045f565b03816000885af19081156105b9575b60009161058b575b50610586819761057861056b846001600160a01b03166000526002602052604060002090565b600160ff19825416179055565b60405193849316968361045f565b0390a3565b6105ac915060203d81116105b2575b6105a481836103f5565b810190610447565b38610545565b503d61059a565b6105c1610487565b61053d565b60046040517f584a7938000000000000000000000000000000000000000000000000000000008152fdfea2646970667358221220e1648d544c81d1010bdcf5ce7e70bcfa11429b4c783f852860fe08feec05f8fc64736f6c634300080e0033",
    "linkReferences": {}
  },
  "methodIdentifiers": {
    "addToWhitelist(address)": "e43252d7",
    "barFee()": "c14ad802",
    "barFeeTo()": "0c0a0cd2",
    "deployPool(address,bytes)": "250558dc",
    "pools(address)": "a4063dbc",
    "removeFromWhitelist(address)": "8ab1d681",
    "setBarFee(uint256)": "06e22d12",
    "setBarFeeTo(address)": "3dad8acb",
    "whitelistedFactories(address)": "6f50f2f4"
  },
  "id": 0
}